{
  "contractName": "ArcadioNFT",
  "abi": [
    {
      "inputs": [],
      "stateMutability": "nonpayable",
      "type": "constructor"
    },
    {
      "anonymous": false,
      "inputs": [
        {
          "indexed": true,
          "internalType": "address",
          "name": "owner",
          "type": "address"
        },
        {
          "indexed": true,
          "internalType": "address",
          "name": "approved",
          "type": "address"
        },
        {
          "indexed": true,
          "internalType": "uint256",
          "name": "tokenId",
          "type": "uint256"
        }
      ],
      "name": "Approval",
      "type": "event"
    },
    {
      "anonymous": false,
      "inputs": [
        {
          "indexed": true,
          "internalType": "address",
          "name": "owner",
          "type": "address"
        },
        {
          "indexed": true,
          "internalType": "address",
          "name": "operator",
          "type": "address"
        },
        {
          "indexed": false,
          "internalType": "bool",
          "name": "approved",
          "type": "bool"
        }
      ],
      "name": "ApprovalForAll",
      "type": "event"
    },
    {
      "anonymous": false,
      "inputs": [
        {
          "indexed": false,
          "internalType": "address",
          "name": "_to",
          "type": "address"
        },
        {
          "indexed": false,
          "internalType": "uint256",
          "name": "tokenId",
          "type": "uint256"
        }
      ],
      "name": "NFTMinted",
      "type": "event"
    },
    {
      "anonymous": false,
      "inputs": [
        {
          "indexed": true,
          "internalType": "address",
          "name": "previousOwner",
          "type": "address"
        },
        {
          "indexed": true,
          "internalType": "address",
          "name": "newOwner",
          "type": "address"
        }
      ],
      "name": "OwnershipTransferred",
      "type": "event"
    },
    {
      "anonymous": false,
      "inputs": [
        {
          "indexed": true,
          "internalType": "address",
          "name": "from",
          "type": "address"
        },
        {
          "indexed": true,
          "internalType": "address",
          "name": "to",
          "type": "address"
        },
        {
          "indexed": true,
          "internalType": "uint256",
          "name": "tokenId",
          "type": "uint256"
        }
      ],
      "name": "Transfer",
      "type": "event"
    },
    {
      "anonymous": false,
      "inputs": [
        {
          "indexed": false,
          "internalType": "address",
          "name": "_to",
          "type": "address"
        },
        {
          "indexed": false,
          "internalType": "uint256",
          "name": "amount",
          "type": "uint256"
        }
      ],
      "name": "balancePaid",
      "type": "event"
    },
    {
      "inputs": [
        {
          "internalType": "address",
          "name": "to",
          "type": "address"
        },
        {
          "internalType": "uint256",
          "name": "tokenId",
          "type": "uint256"
        }
      ],
      "name": "approve",
      "outputs": [],
      "stateMutability": "nonpayable",
      "type": "function"
    },
    {
      "inputs": [
        {
          "internalType": "address",
          "name": "owner",
          "type": "address"
        }
      ],
      "name": "balanceOf",
      "outputs": [
        {
          "internalType": "uint256",
          "name": "",
          "type": "uint256"
        }
      ],
      "stateMutability": "view",
      "type": "function"
    },
    {
      "inputs": [
        {
          "internalType": "uint256",
          "name": "",
          "type": "uint256"
        }
      ],
      "name": "creator",
      "outputs": [
        {
          "internalType": "address",
          "name": "",
          "type": "address"
        }
      ],
      "stateMutability": "view",
      "type": "function"
    },
    {
      "inputs": [
        {
          "internalType": "uint256",
          "name": "tokenId",
          "type": "uint256"
        }
      ],
      "name": "getApproved",
      "outputs": [
        {
          "internalType": "address",
          "name": "",
          "type": "address"
        }
      ],
      "stateMutability": "view",
      "type": "function"
    },
    {
      "inputs": [
        {
          "internalType": "address",
          "name": "owner",
          "type": "address"
        },
        {
          "internalType": "address",
          "name": "operator",
          "type": "address"
        }
      ],
      "name": "isApprovedForAll",
      "outputs": [
        {
          "internalType": "bool",
          "name": "",
          "type": "bool"
        }
      ],
      "stateMutability": "view",
      "type": "function"
    },
    {
      "inputs": [],
      "name": "maxSupply",
      "outputs": [
        {
          "internalType": "uint256",
          "name": "",
          "type": "uint256"
        }
      ],
      "stateMutability": "view",
      "type": "function"
    },
    {
      "inputs": [],
      "name": "name",
      "outputs": [
        {
          "internalType": "string",
          "name": "",
          "type": "string"
        }
      ],
      "stateMutability": "view",
      "type": "function"
    },
    {
      "inputs": [],
      "name": "owner",
      "outputs": [
        {
          "internalType": "address",
          "name": "",
          "type": "address"
        }
      ],
      "stateMutability": "view",
      "type": "function"
    },
    {
      "inputs": [
        {
          "internalType": "uint256",
          "name": "tokenId",
          "type": "uint256"
        }
      ],
      "name": "ownerOf",
      "outputs": [
        {
          "internalType": "address",
          "name": "",
          "type": "address"
        }
      ],
      "stateMutability": "view",
      "type": "function"
    },
    {
      "inputs": [],
      "name": "price",
      "outputs": [
        {
          "internalType": "uint256",
          "name": "",
          "type": "uint256"
        }
      ],
      "stateMutability": "view",
      "type": "function"
    },
    {
      "inputs": [],
      "name": "renounceOwnership",
      "outputs": [],
      "stateMutability": "nonpayable",
      "type": "function"
    },
    {
      "inputs": [
        {
          "internalType": "address",
          "name": "from",
          "type": "address"
        },
        {
          "internalType": "address",
          "name": "to",
          "type": "address"
        },
        {
          "internalType": "uint256",
          "name": "tokenId",
          "type": "uint256"
        }
      ],
      "name": "safeTransferFrom",
      "outputs": [],
      "stateMutability": "nonpayable",
      "type": "function"
    },
    {
      "inputs": [
        {
          "internalType": "address",
          "name": "from",
          "type": "address"
        },
        {
          "internalType": "address",
          "name": "to",
          "type": "address"
        },
        {
          "internalType": "uint256",
          "name": "tokenId",
          "type": "uint256"
        },
        {
          "internalType": "bytes",
          "name": "_data",
          "type": "bytes"
        }
      ],
      "name": "safeTransferFrom",
      "outputs": [],
      "stateMutability": "nonpayable",
      "type": "function"
    },
    {
      "inputs": [
        {
          "internalType": "address",
          "name": "operator",
          "type": "address"
        },
        {
          "internalType": "bool",
          "name": "approved",
          "type": "bool"
        }
      ],
      "name": "setApprovalForAll",
      "outputs": [],
      "stateMutability": "nonpayable",
      "type": "function"
    },
    {
      "inputs": [],
      "name": "symbol",
      "outputs": [
        {
          "internalType": "string",
          "name": "",
          "type": "string"
        }
      ],
      "stateMutability": "view",
      "type": "function"
    },
    {
      "inputs": [
        {
          "internalType": "uint256",
          "name": "index",
          "type": "uint256"
        }
      ],
      "name": "tokenByIndex",
      "outputs": [
        {
          "internalType": "uint256",
          "name": "",
          "type": "uint256"
        }
      ],
      "stateMutability": "view",
      "type": "function"
    },
    {
      "inputs": [
        {
          "internalType": "address",
          "name": "owner",
          "type": "address"
        },
        {
          "internalType": "uint256",
          "name": "index",
          "type": "uint256"
        }
      ],
      "name": "tokenOfOwnerByIndex",
      "outputs": [
        {
          "internalType": "uint256",
          "name": "",
          "type": "uint256"
        }
      ],
      "stateMutability": "view",
      "type": "function"
    },
    {
      "inputs": [],
      "name": "totalSupply",
      "outputs": [
        {
          "internalType": "uint256",
          "name": "",
          "type": "uint256"
        }
      ],
      "stateMutability": "view",
      "type": "function"
    },
    {
      "inputs": [
        {
          "internalType": "address",
          "name": "from",
          "type": "address"
        },
        {
          "internalType": "address",
          "name": "to",
          "type": "address"
        },
        {
          "internalType": "uint256",
          "name": "tokenId",
          "type": "uint256"
        }
      ],
      "name": "transferFrom",
      "outputs": [],
      "stateMutability": "nonpayable",
      "type": "function"
    },
    {
      "inputs": [
        {
          "internalType": "address",
          "name": "newOwner",
          "type": "address"
        }
      ],
      "name": "transferOwnership",
      "outputs": [],
      "stateMutability": "nonpayable",
      "type": "function"
    },
    {
      "inputs": [
        {
          "internalType": "uint256",
          "name": "mintPrice",
          "type": "uint256"
        }
      ],
      "name": "setPrice",
      "outputs": [],
      "stateMutability": "nonpayable",
      "type": "function"
    },
    {
      "inputs": [
        {
          "internalType": "uint256",
          "name": "newMaxSupply",
          "type": "uint256"
        }
      ],
      "name": "setMaxSupply",
      "outputs": [],
      "stateMutability": "nonpayable",
      "type": "function"
    },
    {
      "inputs": [
        {
          "internalType": "string",
          "name": "uri",
          "type": "string"
        }
      ],
      "name": "isContentOwned",
      "outputs": [
        {
          "internalType": "bool",
          "name": "",
          "type": "bool"
        }
      ],
      "stateMutability": "view",
      "type": "function"
    },
    {
      "inputs": [
        {
          "internalType": "address payable",
          "name": "newAddress",
          "type": "address"
        }
      ],
      "name": "updatePaymentAddress",
      "outputs": [],
      "stateMutability": "nonpayable",
      "type": "function"
    },
    {
      "inputs": [
        {
          "internalType": "address",
          "name": "to",
          "type": "address"
        },
        {
          "internalType": "string",
          "name": "uri",
          "type": "string"
        }
      ],
      "name": "safeMint",
      "outputs": [],
      "stateMutability": "nonpayable",
      "type": "function"
    },
    {
      "inputs": [
        {
          "internalType": "string",
          "name": "metadataURI",
          "type": "string"
        }
      ],
      "name": "payToMint",
      "outputs": [
        {
          "internalType": "uint256",
          "name": "",
          "type": "uint256"
        }
      ],
      "stateMutability": "payable",
      "type": "function"
    },
    {
      "inputs": [
        {
          "internalType": "uint256",
          "name": "tokenId",
          "type": "uint256"
        }
      ],
      "name": "tokenURI",
      "outputs": [
        {
          "internalType": "string",
          "name": "",
          "type": "string"
        }
      ],
      "stateMutability": "view",
      "type": "function"
    },
    {
      "inputs": [
        {
          "internalType": "bytes4",
          "name": "interfaceId",
          "type": "bytes4"
        }
      ],
      "name": "supportsInterface",
      "outputs": [
        {
          "internalType": "bool",
          "name": "",
          "type": "bool"
        }
      ],
      "stateMutability": "view",
      "type": "function"
    }
  ],
  "bytecode": "0x608060405267016345785d8a0000600d556103e7600e553480156200002357600080fd5b506040518060400160405280600a81526020017f4172636164696f4e4654000000000000000000000000000000000000000000008152506040518060400160405280600581526020017f41524341440000000000000000000000000000000000000000000000000000008152508160009080519060200190620000a892919062000232565b508060019080519060200190620000c192919062000232565b505050620000e4620000d86200013a60201b60201c565b6200014260201b60201c565b620000f46200020860201b60201c565b600f60006101000a81548173ffffffffffffffffffffffffffffffffffffffff021916908373ffffffffffffffffffffffffffffffffffffffff16021790555062000347565b600033905090565b6000600b60009054906101000a900473ffffffffffffffffffffffffffffffffffffffff16905081600b60006101000a81548173ffffffffffffffffffffffffffffffffffffffff021916908373ffffffffffffffffffffffffffffffffffffffff1602179055508173ffffffffffffffffffffffffffffffffffffffff168173ffffffffffffffffffffffffffffffffffffffff167f8be0079c531659141344cd1fd0a4f28419497f9722a3daafe3b4186f6b6457e060405160405180910390a35050565b6000600b60009054906101000a900473ffffffffffffffffffffffffffffffffffffffff16905090565b828054620002409062000311565b90600052602060002090601f016020900481019282620002645760008555620002b0565b82601f106200027f57805160ff1916838001178555620002b0565b82800160010185558215620002b0579182015b82811115620002af57825182559160200191906001019062000292565b5b509050620002bf9190620002c3565b5090565b5b80821115620002de576000816000905550600101620002c4565b5090565b7f4e487b7100000000000000000000000000000000000000000000000000000000600052602260045260246000fd5b600060028204905060018216806200032a57607f821691505b60208210811415620003415762000340620002e2565b5b50919050565b61440380620003576000396000f3fe6080604052600436106101b75760003560e01c8063715018a6116100ec578063b88d4fde1161008a578063d5abeb0111610064578063d5abeb0114610647578063e985e9c514610672578063f2fde38b146106af578063fe475f6b146106d8576101b7565b8063b88d4fde146105b8578063c87b56dd146105e1578063d204c45e1461061e576101b7565b806395d89b41116100c657806395d89b41146104fc5780639f1cabc614610527578063a035b1fe14610564578063a22cb4651461058f576101b7565b8063715018a6146104915780638da5cb5b146104a857806391b7f5ed146104d3576101b7565b806342842e0e11610159578063537efe3111610133578063537efe31146103be5780636352211e146103ee5780636f8b44b01461042b57806370a0823114610454576101b7565b806342842e0e1461031b5780634f6ccce714610344578063510b515814610381576101b7565b8063095ea7b311610195578063095ea7b31461026157806318160ddd1461028a57806323b872dd146102b55780632f745c59146102de576101b7565b806301ffc9a7146101bc57806306fdde03146101f9578063081812fc14610224575b600080fd5b3480156101c857600080fd5b506101e360048036038101906101de9190612c08565b610701565b6040516101f09190612c50565b60405180910390f35b34801561020557600080fd5b5061020e610713565b60405161021b9190612d04565b60405180910390f35b34801561023057600080fd5b5061024b60048036038101906102469190612d5c565b6107a5565b6040516102589190612dca565b60405180910390f35b34801561026d57600080fd5b5061028860048036038101906102839190612e11565b61082a565b005b34801561029657600080fd5b5061029f610942565b6040516102ac9190612e60565b60405180910390f35b3480156102c157600080fd5b506102dc60048036038101906102d79190612e7b565b61094f565b005b3480156102ea57600080fd5b5061030560048036038101906103009190612e11565b6109af565b6040516103129190612e60565b60405180910390f35b34801561032757600080fd5b50610342600480360381019061033d9190612e7b565b610a54565b005b34801561035057600080fd5b5061036b60048036038101906103669190612d5c565b610a74565b6040516103789190612e60565b60405180910390f35b34801561038d57600080fd5b506103a860048036038101906103a39190612d5c565b610ae5565b6040516103b59190612dca565b60405180910390f35b6103d860048036038101906103d39190613003565b610b18565b6040516103e59190612e60565b60405180910390f35b3480156103fa57600080fd5b5061041560048036038101906104109190612d5c565b610cf9565b6040516104229190612dca565b60405180910390f35b34801561043757600080fd5b50610452600480360381019061044d9190612d5c565b610dab565b005b34801561046057600080fd5b5061047b6004803603810190610476919061304c565b610e31565b6040516104889190612e60565b60405180910390f35b34801561049d57600080fd5b506104a6610ee9565b005b3480156104b457600080fd5b506104bd610f71565b6040516104ca9190612dca565b60405180910390f35b3480156104df57600080fd5b506104fa60048036038101906104f59190612d5c565b610f9b565b005b34801561050857600080fd5b50610511611021565b60405161051e9190612d04565b60405180910390f35b34801561053357600080fd5b5061054e60048036038101906105499190613003565b6110b3565b60405161055b9190612c50565b60405180910390f35b34801561057057600080fd5b506105796110de565b6040516105869190612e60565b60405180910390f35b34801561059b57600080fd5b506105b660048036038101906105b191906130a5565b6110e4565b005b3480156105c457600080fd5b506105df60048036038101906105da9190613186565b6110fa565b005b3480156105ed57600080fd5b5061060860048036038101906106039190612d5c565b61115c565b6040516106159190612d04565b60405180910390f35b34801561062a57600080fd5b5061064560048036038101906106409190613209565b61116e565b005b34801561065357600080fd5b5061065c6112b8565b6040516106699190612e60565b60405180910390f35b34801561067e57600080fd5b5061069960048036038101906106949190613265565b6112be565b6040516106a69190612c50565b60405180910390f35b3480156106bb57600080fd5b506106d660048036038101906106d1919061304c565b611352565b005b3480156106e457600080fd5b506106ff60048036038101906106fa91906132e3565b61144a565b005b600061070c8261150a565b9050919050565b6060600080546107229061333f565b80601f016020809104026020016040519081016040528092919081815260200182805461074e9061333f565b801561079b5780601f106107705761010080835404028352916020019161079b565b820191906000526020600020905b81548152906001019060200180831161077e57829003601f168201915b5050505050905090565b60006107b082611584565b6107ef576040517f08c379a00000000000000000000000000000000000000000000000000000000081526004016107e6906133e3565b60405180910390fd5b6004600083815260200190815260200160002060009054906101000a900473ffffffffffffffffffffffffffffffffffffffff169050919050565b600061083582610cf9565b90508073ffffffffffffffffffffffffffffffffffffffff168373ffffffffffffffffffffffffffffffffffffffff1614156108a6576040517f08c379a000000000000000000000000000000000000000000000000000000000815260040161089d90613475565b60405180910390fd5b8073ffffffffffffffffffffffffffffffffffffffff166108c56115f0565b73ffffffffffffffffffffffffffffffffffffffff1614806108f457506108f3816108ee6115f0565b6112be565b5b610933576040517f08c379a000000000000000000000000000000000000000000000000000000000815260040161092a90613507565b60405180910390fd5b61093d83836115f8565b505050565b6000600880549050905090565b61096061095a6115f0565b826116b1565b61099f576040517f08c379a000000000000000000000000000000000000000000000000000000000815260040161099690613599565b60405180910390fd5b6109aa83838361178f565b505050565b60006109ba83610e31565b82106109fb576040517f08c379a00000000000000000000000000000000000000000000000000000000081526004016109f29061362b565b60405180910390fd5b600660008473ffffffffffffffffffffffffffffffffffffffff1673ffffffffffffffffffffffffffffffffffffffff168152602001908152602001600020600083815260200190815260200160002054905092915050565b610a6f838383604051806020016040528060008152506110fa565b505050565b6000610a7e610942565b8210610abf576040517f08c379a0000000000000000000000000000000000000000000000000000000008152600401610ab6906136bd565b60405180910390fd5b60088281548110610ad357610ad26136dd565b5b90600052602060002001549050919050565b60116020528060005260406000206000915054906101000a900473ffffffffffffffffffffffffffffffffffffffff1681565b60006001601083604051610b2c9190613748565b9081526020016040518091039020541415610b7c576040517f08c379a0000000000000000000000000000000000000000000000000000000008152600401610b73906137d1565b60405180910390fd5b600d54341015610bc1576040517f08c379a0000000000000000000000000000000000000000000000000000000008152600401610bb890613863565b60405180910390fd5b600e54610bcc610942565b10610c0c576040517f08c379a0000000000000000000000000000000000000000000000000000000008152600401610c03906138cf565b60405180910390fd5b6000610c18600c6119f6565b9050610c24600c611a04565b6001601084604051610c369190613748565b908152602001604051809103902081905550610c523382611a1a565b610c5c8184611a38565b7f4cc0a9c4a99ddc700de1af2c9f916a7cbfdb71f14801ccff94061ad1ef8a80403382604051610c8d9291906138ef565b60405180910390a1336011600083815260200190815260200160002060006101000a81548173ffffffffffffffffffffffffffffffffffffffff021916908373ffffffffffffffffffffffffffffffffffffffff160217905550610cf034611aac565b80915050919050565b6000806002600084815260200190815260200160002060009054906101000a900473ffffffffffffffffffffffffffffffffffffffff169050600073ffffffffffffffffffffffffffffffffffffffff168173ffffffffffffffffffffffffffffffffffffffff161415610da2576040517f08c379a0000000000000000000000000000000000000000000000000000000008152600401610d999061398a565b60405180910390fd5b80915050919050565b610db36115f0565b73ffffffffffffffffffffffffffffffffffffffff16610dd1610f71565b73ffffffffffffffffffffffffffffffffffffffff1614610e27576040517f08c379a0000000000000000000000000000000000000000000000000000000008152600401610e1e906139f6565b60405180910390fd5b80600e8190555050565b60008073ffffffffffffffffffffffffffffffffffffffff168273ffffffffffffffffffffffffffffffffffffffff161415610ea2576040517f08c379a0000000000000000000000000000000000000000000000000000000008152600401610e9990613a88565b60405180910390fd5b600360008373ffffffffffffffffffffffffffffffffffffffff1673ffffffffffffffffffffffffffffffffffffffff168152602001908152602001600020549050919050565b610ef16115f0565b73ffffffffffffffffffffffffffffffffffffffff16610f0f610f71565b73ffffffffffffffffffffffffffffffffffffffff1614610f65576040517f08c379a0000000000000000000000000000000000000000000000000000000008152600401610f5c906139f6565b60405180910390fd5b610f6f6000611b73565b565b6000600b60009054906101000a900473ffffffffffffffffffffffffffffffffffffffff16905090565b610fa36115f0565b73ffffffffffffffffffffffffffffffffffffffff16610fc1610f71565b73ffffffffffffffffffffffffffffffffffffffff1614611017576040517f08c379a000000000000000000000000000000000000000000000000000000000815260040161100e906139f6565b60405180910390fd5b80600d8190555050565b6060600180546110309061333f565b80601f016020809104026020016040519081016040528092919081815260200182805461105c9061333f565b80156110a95780601f1061107e576101008083540402835291602001916110a9565b820191906000526020600020905b81548152906001019060200180831161108c57829003601f168201915b5050505050905090565b600060016010836040516110c79190613748565b908152602001604051809103902054149050919050565b600d5481565b6110f66110ef6115f0565b8383611c39565b5050565b61110b6111056115f0565b836116b1565b61114a576040517f08c379a000000000000000000000000000000000000000000000000000000000815260040161114190613599565b60405180910390fd5b61115684848484611da6565b50505050565b606061116782611e02565b9050919050565b6111766115f0565b73ffffffffffffffffffffffffffffffffffffffff16611194610f71565b73ffffffffffffffffffffffffffffffffffffffff16146111ea576040517f08c379a00000000000000000000000000000000000000000000000000000000081526004016111e1906139f6565b60405180910390fd5b600e546111f5610942565b10611235576040517f08c379a000000000000000000000000000000000000000000000000000000000815260040161122c906138cf565b60405180910390fd5b6000611241600c6119f6565b905061124d600c611a04565b6112578382611a1a565b6112618183611a38565b336011600083815260200190815260200160002060006101000a81548173ffffffffffffffffffffffffffffffffffffffff021916908373ffffffffffffffffffffffffffffffffffffffff160217905550505050565b600e5481565b6000600560008473ffffffffffffffffffffffffffffffffffffffff1673ffffffffffffffffffffffffffffffffffffffff16815260200190815260200160002060008373ffffffffffffffffffffffffffffffffffffffff1673ffffffffffffffffffffffffffffffffffffffff16815260200190815260200160002060009054906101000a900460ff16905092915050565b61135a6115f0565b73ffffffffffffffffffffffffffffffffffffffff16611378610f71565b73ffffffffffffffffffffffffffffffffffffffff16146113ce576040517f08c379a00000000000000000000000000000000000000000000000000000000081526004016113c5906139f6565b60405180910390fd5b600073ffffffffffffffffffffffffffffffffffffffff168173ffffffffffffffffffffffffffffffffffffffff16141561143e576040517f08c379a000000000000000000000000000000000000000000000000000000000815260040161143590613b1a565b60405180910390fd5b61144781611b73565b50565b6114526115f0565b73ffffffffffffffffffffffffffffffffffffffff16611470610f71565b73ffffffffffffffffffffffffffffffffffffffff16146114c6576040517f08c379a00000000000000000000000000000000000000000000000000000000081526004016114bd906139f6565b60405180910390fd5b80600f60006101000a81548173ffffffffffffffffffffffffffffffffffffffff021916908373ffffffffffffffffffffffffffffffffffffffff16021790555050565b60007f780e9d63000000000000000000000000000000000000000000000000000000007bffffffffffffffffffffffffffffffffffffffffffffffffffffffff1916827bffffffffffffffffffffffffffffffffffffffffffffffffffffffff1916148061157d575061157c82611f54565b5b9050919050565b60008073ffffffffffffffffffffffffffffffffffffffff166002600084815260200190815260200160002060009054906101000a900473ffffffffffffffffffffffffffffffffffffffff1673ffffffffffffffffffffffffffffffffffffffff1614159050919050565b600033905090565b816004600083815260200190815260200160002060006101000a81548173ffffffffffffffffffffffffffffffffffffffff021916908373ffffffffffffffffffffffffffffffffffffffff160217905550808273ffffffffffffffffffffffffffffffffffffffff1661166b83610cf9565b73ffffffffffffffffffffffffffffffffffffffff167f8c5be1e5ebec7d5bd14f71427d1e84f3dd0314c0f7b2291e5b200ac8c7c3b92560405160405180910390a45050565b60006116bc82611584565b6116fb576040517f08c379a00000000000000000000000000000000000000000000000000000000081526004016116f290613bac565b60405180910390fd5b600061170683610cf9565b90508073ffffffffffffffffffffffffffffffffffffffff168473ffffffffffffffffffffffffffffffffffffffff16148061177557508373ffffffffffffffffffffffffffffffffffffffff1661175d846107a5565b73ffffffffffffffffffffffffffffffffffffffff16145b80611786575061178581856112be565b5b91505092915050565b8273ffffffffffffffffffffffffffffffffffffffff166117af82610cf9565b73ffffffffffffffffffffffffffffffffffffffff1614611805576040517f08c379a00000000000000000000000000000000000000000000000000000000081526004016117fc90613c3e565b60405180910390fd5b600073ffffffffffffffffffffffffffffffffffffffff168273ffffffffffffffffffffffffffffffffffffffff161415611875576040517f08c379a000000000000000000000000000000000000000000000000000000000815260040161186c90613cd0565b60405180910390fd5b611880838383612036565b61188b6000826115f8565b6001600360008573ffffffffffffffffffffffffffffffffffffffff1673ffffffffffffffffffffffffffffffffffffffff16815260200190815260200160002060008282546118db9190613d1f565b925050819055506001600360008473ffffffffffffffffffffffffffffffffffffffff1673ffffffffffffffffffffffffffffffffffffffff16815260200190815260200160002060008282546119329190613d53565b92505081905550816002600083815260200190815260200160002060006101000a81548173ffffffffffffffffffffffffffffffffffffffff021916908373ffffffffffffffffffffffffffffffffffffffff160217905550808273ffffffffffffffffffffffffffffffffffffffff168473ffffffffffffffffffffffffffffffffffffffff167fddf252ad1be2c89b69c2b068fc378daa952ba7f163c4a11628f55a4df523b3ef60405160405180910390a46119f1838383612046565b505050565b600081600001549050919050565b6001816000016000828254019250508190555050565b611a3482826040518060200160405280600081525061204b565b5050565b611a4182611584565b611a80576040517f08c379a0000000000000000000000000000000000000000000000000000000008152600401611a7790613e1b565b60405180910390fd5b80600a60008481526020019081526020016000209080519060200190611aa7929190612af9565b505050565b600f60009054906101000a900473ffffffffffffffffffffffffffffffffffffffff1673ffffffffffffffffffffffffffffffffffffffff166108fc829081150290604051600060405180830381858888f19350505050158015611b14573d6000803e3d6000fd5b507f7c7dff95379c56ff5dc0486493696433da5534ef4b8118a7ed8d511c2b289b7f600f60009054906101000a900473ffffffffffffffffffffffffffffffffffffffff1682604051611b68929190613e9a565b60405180910390a150565b6000600b60009054906101000a900473ffffffffffffffffffffffffffffffffffffffff16905081600b60006101000a81548173ffffffffffffffffffffffffffffffffffffffff021916908373ffffffffffffffffffffffffffffffffffffffff1602179055508173ffffffffffffffffffffffffffffffffffffffff168173ffffffffffffffffffffffffffffffffffffffff167f8be0079c531659141344cd1fd0a4f28419497f9722a3daafe3b4186f6b6457e060405160405180910390a35050565b8173ffffffffffffffffffffffffffffffffffffffff168373ffffffffffffffffffffffffffffffffffffffff161415611ca8576040517f08c379a0000000000000000000000000000000000000000000000000000000008152600401611c9f90613f0f565b60405180910390fd5b80600560008573ffffffffffffffffffffffffffffffffffffffff1673ffffffffffffffffffffffffffffffffffffffff16815260200190815260200160002060008473ffffffffffffffffffffffffffffffffffffffff1673ffffffffffffffffffffffffffffffffffffffff16815260200190815260200160002060006101000a81548160ff0219169083151502179055508173ffffffffffffffffffffffffffffffffffffffff168373ffffffffffffffffffffffffffffffffffffffff167f17307eab39ab6107e8899845ad3d59bd9653f200f220920489ca2b5937696c3183604051611d999190612c50565b60405180910390a3505050565b611db184848461178f565b611dbd848484846120a6565b611dfc576040517f08c379a0000000000000000000000000000000000000000000000000000000008152600401611df390613fa1565b60405180910390fd5b50505050565b6060611e0d82611584565b611e4c576040517f08c379a0000000000000000000000000000000000000000000000000000000008152600401611e4390614033565b60405180910390fd5b6000600a60008481526020019081526020016000208054611e6c9061333f565b80601f0160208091040260200160405190810160405280929190818152602001828054611e989061333f565b8015611ee55780601f10611eba57610100808354040283529160200191611ee5565b820191906000526020600020905b815481529060010190602001808311611ec857829003601f168201915b505050505090506000611ef661222e565b9050600081511415611f0c578192505050611f4f565b600082511115611f41578082604051602001611f29929190614053565b60405160208183030381529060405292505050611f4f565b611f4a8461226b565b925050505b919050565b60007f80ac58cd000000000000000000000000000000000000000000000000000000007bffffffffffffffffffffffffffffffffffffffffffffffffffffffff1916827bffffffffffffffffffffffffffffffffffffffffffffffffffffffff1916148061201f57507f5b5e139f000000000000000000000000000000000000000000000000000000007bffffffffffffffffffffffffffffffffffffffffffffffffffffffff1916827bffffffffffffffffffffffffffffffffffffffffffffffffffffffff1916145b8061202f575061202e82612312565b5b9050919050565b61204183838361237c565b505050565b505050565b6120558383612490565b61206260008484846120a6565b6120a1576040517f08c379a000000000000000000000000000000000000000000000000000000000815260040161209890613fa1565b60405180910390fd5b505050565b60006120c78473ffffffffffffffffffffffffffffffffffffffff1661266a565b15612221578373ffffffffffffffffffffffffffffffffffffffff1663150b7a026120f06115f0565b8786866040518563ffffffff1660e01b815260040161211294939291906140cc565b6020604051808303816000875af192505050801561214e57506040513d601f19601f8201168201806040525081019061214b919061412d565b60015b6121d1573d806000811461217e576040519150601f19603f3d011682016040523d82523d6000602084013e612183565b606091505b506000815114156121c9576040517f08c379a00000000000000000000000000000000000000000000000000000000081526004016121c090613fa1565b60405180910390fd5b805181602001fd5b63150b7a0260e01b7bffffffffffffffffffffffffffffffffffffffffffffffffffffffff1916817bffffffffffffffffffffffffffffffffffffffffffffffffffffffff191614915050612226565b600190505b949350505050565b60606040518060400160405280600781526020017f697066733a2f2f00000000000000000000000000000000000000000000000000815250905090565b606061227682611584565b6122b5576040517f08c379a00000000000000000000000000000000000000000000000000000000081526004016122ac906141cc565b60405180910390fd5b60006122bf61222e565b905060008151116122df576040518060200160405280600081525061230a565b806122e98461268d565b6040516020016122fa929190614053565b6040516020818303038152906040525b915050919050565b60007f01ffc9a7000000000000000000000000000000000000000000000000000000007bffffffffffffffffffffffffffffffffffffffffffffffffffffffff1916827bffffffffffffffffffffffffffffffffffffffffffffffffffffffff1916149050919050565b6123878383836127ee565b600073ffffffffffffffffffffffffffffffffffffffff168373ffffffffffffffffffffffffffffffffffffffff1614156123ca576123c5816127f3565b612409565b8173ffffffffffffffffffffffffffffffffffffffff168373ffffffffffffffffffffffffffffffffffffffff161461240857612407838261283c565b5b5b600073ffffffffffffffffffffffffffffffffffffffff168273ffffffffffffffffffffffffffffffffffffffff16141561244c57612447816129a9565b61248b565b8273ffffffffffffffffffffffffffffffffffffffff168273ffffffffffffffffffffffffffffffffffffffff161461248a576124898282612a7a565b5b5b505050565b600073ffffffffffffffffffffffffffffffffffffffff168273ffffffffffffffffffffffffffffffffffffffff161415612500576040517f08c379a00000000000000000000000000000000000000000000000000000000081526004016124f790614238565b60405180910390fd5b61250981611584565b15612549576040517f08c379a0000000000000000000000000000000000000000000000000000000008152600401612540906142a4565b60405180910390fd5b61255560008383612036565b6001600360008473ffffffffffffffffffffffffffffffffffffffff1673ffffffffffffffffffffffffffffffffffffffff16815260200190815260200160002060008282546125a59190613d53565b92505081905550816002600083815260200190815260200160002060006101000a81548173ffffffffffffffffffffffffffffffffffffffff021916908373ffffffffffffffffffffffffffffffffffffffff160217905550808273ffffffffffffffffffffffffffffffffffffffff16600073ffffffffffffffffffffffffffffffffffffffff167fddf252ad1be2c89b69c2b068fc378daa952ba7f163c4a11628f55a4df523b3ef60405160405180910390a461266660008383612046565b5050565b6000808273ffffffffffffffffffffffffffffffffffffffff163b119050919050565b606060008214156126d5576040518060400160405280600181526020017f300000000000000000000000000000000000000000000000000000000000000081525090506127e9565b600082905060005b600082146127075780806126f0906142c4565b915050600a82612700919061433c565b91506126dd565b60008167ffffffffffffffff81111561272357612722612ed8565b5b6040519080825280601f01601f1916602001820160405280156127555781602001600182028036833780820191505090505b5090505b600085146127e25760018261276e9190613d1f565b9150600a8561277d919061436d565b60306127899190613d53565b60f81b81838151811061279f5761279e6136dd565b5b60200101907effffffffffffffffffffffffffffffffffffffffffffffffffffffffffffff1916908160001a905350600a856127db919061433c565b9450612759565b8093505050505b919050565b505050565b6008805490506009600083815260200190815260200160002081905550600881908060018154018082558091505060019003906000526020600020016000909190919091505550565b6000600161284984610e31565b6128539190613d1f565b9050600060076000848152602001908152602001600020549050818114612938576000600660008673ffffffffffffffffffffffffffffffffffffffff1673ffffffffffffffffffffffffffffffffffffffff168152602001908152602001600020600084815260200190815260200160002054905080600660008773ffffffffffffffffffffffffffffffffffffffff1673ffffffffffffffffffffffffffffffffffffffff168152602001908152602001600020600084815260200190815260200160002081905550816007600083815260200190815260200160002081905550505b6007600084815260200190815260200160002060009055600660008573ffffffffffffffffffffffffffffffffffffffff1673ffffffffffffffffffffffffffffffffffffffff16815260200190815260200160002060008381526020019081526020016000206000905550505050565b600060016008805490506129bd9190613d1f565b90506000600960008481526020019081526020016000205490506000600883815481106129ed576129ec6136dd565b5b906000526020600020015490508060088381548110612a0f57612a0e6136dd565b5b906000526020600020018190555081600960008381526020019081526020016000208190555060096000858152602001908152602001600020600090556008805480612a5e57612a5d61439e565b5b6001900381819060005260206000200160009055905550505050565b6000612a8583610e31565b905081600660008573ffffffffffffffffffffffffffffffffffffffff1673ffffffffffffffffffffffffffffffffffffffff168152602001908152602001600020600083815260200190815260200160002081905550806007600084815260200190815260200160002081905550505050565b828054612b059061333f565b90600052602060002090601f016020900481019282612b275760008555612b6e565b82601f10612b4057805160ff1916838001178555612b6e565b82800160010185558215612b6e579182015b82811115612b6d578251825591602001919060010190612b52565b5b509050612b7b9190612b7f565b5090565b5b80821115612b98576000816000905550600101612b80565b5090565b6000604051905090565b600080fd5b600080fd5b60007fffffffff0000000000000000000000000000000000000000000000000000000082169050919050565b612be581612bb0565b8114612bf057600080fd5b50565b600081359050612c0281612bdc565b92915050565b600060208284031215612c1e57612c1d612ba6565b5b6000612c2c84828501612bf3565b91505092915050565b60008115159050919050565b612c4a81612c35565b82525050565b6000602082019050612c656000830184612c41565b92915050565b600081519050919050565b600082825260208201905092915050565b60005b83811015612ca5578082015181840152602081019050612c8a565b83811115612cb4576000848401525b50505050565b6000601f19601f8301169050919050565b6000612cd682612c6b565b612ce08185612c76565b9350612cf0818560208601612c87565b612cf981612cba565b840191505092915050565b60006020820190508181036000830152612d1e8184612ccb565b905092915050565b6000819050919050565b612d3981612d26565b8114612d4457600080fd5b50565b600081359050612d5681612d30565b92915050565b600060208284031215612d7257612d71612ba6565b5b6000612d8084828501612d47565b91505092915050565b600073ffffffffffffffffffffffffffffffffffffffff82169050919050565b6000612db482612d89565b9050919050565b612dc481612da9565b82525050565b6000602082019050612ddf6000830184612dbb565b92915050565b612dee81612da9565b8114612df957600080fd5b50565b600081359050612e0b81612de5565b92915050565b60008060408385031215612e2857612e27612ba6565b5b6000612e3685828601612dfc565b9250506020612e4785828601612d47565b9150509250929050565b612e5a81612d26565b82525050565b6000602082019050612e756000830184612e51565b92915050565b600080600060608486031215612e9457612e93612ba6565b5b6000612ea286828701612dfc565b9350506020612eb386828701612dfc565b9250506040612ec486828701612d47565b9150509250925092565b600080fd5b600080fd5b7f4e487b7100000000000000000000000000000000000000000000000000000000600052604160045260246000fd5b612f1082612cba565b810181811067ffffffffffffffff82111715612f2f57612f2e612ed8565b5b80604052505050565b6000612f42612b9c565b9050612f4e8282612f07565b919050565b600067ffffffffffffffff821115612f6e57612f6d612ed8565b5b612f7782612cba565b9050602081019050919050565b82818337600083830152505050565b6000612fa6612fa184612f53565b612f38565b905082815260208101848484011115612fc257612fc1612ed3565b5b612fcd848285612f84565b509392505050565b600082601f830112612fea57612fe9612ece565b5b8135612ffa848260208601612f93565b91505092915050565b60006020828403121561301957613018612ba6565b5b600082013567ffffffffffffffff81111561303757613036612bab565b5b61304384828501612fd5565b91505092915050565b60006020828403121561306257613061612ba6565b5b600061307084828501612dfc565b91505092915050565b61308281612c35565b811461308d57600080fd5b50565b60008135905061309f81613079565b92915050565b600080604083850312156130bc576130bb612ba6565b5b60006130ca85828601612dfc565b92505060206130db85828601613090565b9150509250929050565b600067ffffffffffffffff821115613100576130ff612ed8565b5b61310982612cba565b9050602081019050919050565b6000613129613124846130e5565b612f38565b90508281526020810184848401111561314557613144612ed3565b5b613150848285612f84565b509392505050565b600082601f83011261316d5761316c612ece565b5b813561317d848260208601613116565b91505092915050565b600080600080608085870312156131a05761319f612ba6565b5b60006131ae87828801612dfc565b94505060206131bf87828801612dfc565b93505060406131d087828801612d47565b925050606085013567ffffffffffffffff8111156131f1576131f0612bab565b5b6131fd87828801613158565b91505092959194509250565b600080604083850312156132205761321f612ba6565b5b600061322e85828601612dfc565b925050602083013567ffffffffffffffff81111561324f5761324e612bab565b5b61325b85828601612fd5565b9150509250929050565b6000806040838503121561327c5761327b612ba6565b5b600061328a85828601612dfc565b925050602061329b85828601612dfc565b9150509250929050565b60006132b082612d89565b9050919050565b6132c0816132a5565b81146132cb57600080fd5b50565b6000813590506132dd816132b7565b92915050565b6000602082840312156132f9576132f8612ba6565b5b6000613307848285016132ce565b91505092915050565b7f4e487b7100000000000000000000000000000000000000000000000000000000600052602260045260246000fd5b6000600282049050600182168061335757607f821691505b6020821081141561336b5761336a613310565b5b50919050565b7f4552433732313a20617070726f76656420717565727920666f72206e6f6e657860008201527f697374656e7420746f6b656e0000000000000000000000000000000000000000602082015250565b60006133cd602c83612c76565b91506133d882613371565b604082019050919050565b600060208201905081810360008301526133fc816133c0565b9050919050565b7f4552433732313a20617070726f76616c20746f2063757272656e74206f776e6560008201527f7200000000000000000000000000000000000000000000000000000000000000602082015250565b600061345f602183612c76565b915061346a82613403565b604082019050919050565b6000602082019050818103600083015261348e81613452565b9050919050565b7f4552433732313a20617070726f76652063616c6c6572206973206e6f74206f7760008201527f6e6572206e6f7220617070726f76656420666f7220616c6c0000000000000000602082015250565b60006134f1603883612c76565b91506134fc82613495565b604082019050919050565b60006020820190508181036000830152613520816134e4565b9050919050565b7f4552433732313a207472616e736665722063616c6c6572206973206e6f74206f60008201527f776e6572206e6f7220617070726f766564000000000000000000000000000000602082015250565b6000613583603183612c76565b915061358e82613527565b604082019050919050565b600060208201905081810360008301526135b281613576565b9050919050565b7f455243373231456e756d657261626c653a206f776e657220696e646578206f7560008201527f74206f6620626f756e6473000000000000000000000000000000000000000000602082015250565b6000613615602b83612c76565b9150613620826135b9565b604082019050919050565b6000602082019050818103600083015261364481613608565b9050919050565b7f455243373231456e756d657261626c653a20676c6f62616c20696e646578206f60008201527f7574206f6620626f756e64730000000000000000000000000000000000000000602082015250565b60006136a7602c83612c76565b91506136b28261364b565b604082019050919050565b600060208201905081810360008301526136d68161369a565b9050919050565b7f4e487b7100000000000000000000000000000000000000000000000000000000600052603260045260246000fd5b600081905092915050565b600061372282612c6b565b61372c818561370c565b935061373c818560208601612c87565b80840191505092915050565b60006137548284613717565b915081905092915050565b7f4172636164696f204d616368696e65204e465420616c7265616479206d696e7460008201527f6564210000000000000000000000000000000000000000000000000000000000602082015250565b60006137bb602383612c76565b91506137c68261375f565b604082019050919050565b600060208201905081810360008301526137ea816137ae565b9050919050565b7f4e6f742073756666696369656e742070726963652e204e65656420746f20706160008201527f7920757021000000000000000000000000000000000000000000000000000000602082015250565b600061384d602583612c76565b9150613858826137f1565b604082019050919050565b6000602082019050818103600083015261387c81613840565b9050919050565b7f416c6c204e4654732068617665206265656e206d696e74656400000000000000600082015250565b60006138b9601983612c76565b91506138c482613883565b602082019050919050565b600060208201905081810360008301526138e8816138ac565b9050919050565b60006040820190506139046000830185612dbb565b6139116020830184612e51565b9392505050565b7f4552433732313a206f776e657220717565727920666f72206e6f6e657869737460008201527f656e7420746f6b656e0000000000000000000000000000000000000000000000602082015250565b6000613974602983612c76565b915061397f82613918565b604082019050919050565b600060208201905081810360008301526139a381613967565b9050919050565b7f4f776e61626c653a2063616c6c6572206973206e6f7420746865206f776e6572600082015250565b60006139e0602083612c76565b91506139eb826139aa565b602082019050919050565b60006020820190508181036000830152613a0f816139d3565b9050919050565b7f4552433732313a2062616c616e636520717565727920666f7220746865207a6560008201527f726f206164647265737300000000000000000000000000000000000000000000602082015250565b6000613a72602a83612c76565b9150613a7d82613a16565b604082019050919050565b60006020820190508181036000830152613aa181613a65565b9050919050565b7f4f776e61626c653a206e6577206f776e657220697320746865207a65726f206160008201527f6464726573730000000000000000000000000000000000000000000000000000602082015250565b6000613b04602683612c76565b9150613b0f82613aa8565b604082019050919050565b60006020820190508181036000830152613b3381613af7565b9050919050565b7f4552433732313a206f70657261746f7220717565727920666f72206e6f6e657860008201527f697374656e7420746f6b656e0000000000000000000000000000000000000000602082015250565b6000613b96602c83612c76565b9150613ba182613b3a565b604082019050919050565b60006020820190508181036000830152613bc581613b89565b9050919050565b7f4552433732313a207472616e736665722066726f6d20696e636f72726563742060008201527f6f776e6572000000000000000000000000000000000000000000000000000000602082015250565b6000613c28602583612c76565b9150613c3382613bcc565b604082019050919050565b60006020820190508181036000830152613c5781613c1b565b9050919050565b7f4552433732313a207472616e7366657220746f20746865207a65726f2061646460008201527f7265737300000000000000000000000000000000000000000000000000000000602082015250565b6000613cba602483612c76565b9150613cc582613c5e565b604082019050919050565b60006020820190508181036000830152613ce981613cad565b9050919050565b7f4e487b7100000000000000000000000000000000000000000000000000000000600052601160045260246000fd5b6000613d2a82612d26565b9150613d3583612d26565b925082821015613d4857613d47613cf0565b5b828203905092915050565b6000613d5e82612d26565b9150613d6983612d26565b9250827fffffffffffffffffffffffffffffffffffffffffffffffffffffffffffffffff03821115613d9e57613d9d613cf0565b5b828201905092915050565b7f45524337323155524953746f726167653a2055524920736574206f66206e6f6e60008201527f6578697374656e7420746f6b656e000000000000000000000000000000000000602082015250565b6000613e05602e83612c76565b9150613e1082613da9565b604082019050919050565b60006020820190508181036000830152613e3481613df8565b9050919050565b6000819050919050565b6000613e60613e5b613e5684612d89565b613e3b565b612d89565b9050919050565b6000613e7282613e45565b9050919050565b6000613e8482613e67565b9050919050565b613e9481613e79565b82525050565b6000604082019050613eaf6000830185613e8b565b613ebc6020830184612e51565b9392505050565b7f4552433732313a20617070726f766520746f2063616c6c657200000000000000600082015250565b6000613ef9601983612c76565b9150613f0482613ec3565b602082019050919050565b60006020820190508181036000830152613f2881613eec565b9050919050565b7f4552433732313a207472616e7366657220746f206e6f6e20455243373231526560008201527f63656976657220696d706c656d656e7465720000000000000000000000000000602082015250565b6000613f8b603283612c76565b9150613f9682613f2f565b604082019050919050565b60006020820190508181036000830152613fba81613f7e565b9050919050565b7f45524337323155524953746f726167653a2055524920717565727920666f722060008201527f6e6f6e6578697374656e7420746f6b656e000000000000000000000000000000602082015250565b600061401d603183612c76565b915061402882613fc1565b604082019050919050565b6000602082019050818103600083015261404c81614010565b9050919050565b600061405f8285613717565b915061406b8284613717565b91508190509392505050565b600081519050919050565b600082825260208201905092915050565b600061409e82614077565b6140a88185614082565b93506140b8818560208601612c87565b6140c181612cba565b840191505092915050565b60006080820190506140e16000830187612dbb565b6140ee6020830186612dbb565b6140fb6040830185612e51565b818103606083015261410d8184614093565b905095945050505050565b60008151905061412781612bdc565b92915050565b60006020828403121561414357614142612ba6565b5b600061415184828501614118565b91505092915050565b7f4552433732314d657461646174613a2055524920717565727920666f72206e6f60008201527f6e6578697374656e7420746f6b656e0000000000000000000000000000000000602082015250565b60006141b6602f83612c76565b91506141c18261415a565b604082019050919050565b600060208201905081810360008301526141e5816141a9565b9050919050565b7f4552433732313a206d696e7420746f20746865207a65726f2061646472657373600082015250565b6000614222602083612c76565b915061422d826141ec565b602082019050919050565b6000602082019050818103600083015261425181614215565b9050919050565b7f4552433732313a20746f6b656e20616c7265616479206d696e74656400000000600082015250565b600061428e601c83612c76565b915061429982614258565b602082019050919050565b600060208201905081810360008301526142bd81614281565b9050919050565b60006142cf82612d26565b91507fffffffffffffffffffffffffffffffffffffffffffffffffffffffffffffffff82141561430257614301613cf0565b5b600182019050919050565b7f4e487b7100000000000000000000000000000000000000000000000000000000600052601260045260246000fd5b600061434782612d26565b915061435283612d26565b9250826143625761436161430d565b5b828204905092915050565b600061437882612d26565b915061438383612d26565b9250826143935761439261430d565b5b828206905092915050565b7f4e487b7100000000000000000000000000000000000000000000000000000000600052603160045260246000fdfea264697066735822122029194ce4d18de404d4f172e7302a374b89981b4436c2df2590bf0a6c3510ee4364736f6c634300080b0033",
  "immutableReferences": {},
  "source": "// SPDX-License-Identifier: MIT\npragma solidity ^0.8.4;\n\n/*\nWelcome to ArcadioNFT! We are developing a cutting edge online gaming network for \nthe digital world. Simple addictive games with maximum benefit for machine(NFT) holders\nby providing continuos rent through machine usage and game in-play charges.\n\nWebsite: https://arcadio.network\n*/\n\nimport \"@openzeppelin/contracts/token/ERC721/ERC721.sol\";\nimport \"@openzeppelin/contracts/token/ERC721/extensions/ERC721Enumerable.sol\";\nimport \"@openzeppelin/contracts/token/ERC721/extensions/ERC721URIStorage.sol\";\nimport \"@openzeppelin/contracts/access/Ownable.sol\";\nimport \"@openzeppelin/contracts/utils/Counters.sol\";\n\ncontract ArcadioNFT is ERC721, ERC721Enumerable, ERC721URIStorage, Ownable {\n    using Counters for Counters.Counter;\n\n    Counters.Counter private _tokenIdCounter;\n    uint256 public price = 0.1 ether;\n    uint256 public maxSupply = 999;\n    address payable paymentAddress;\n    mapping(string => uint256) existingURIs;\n    mapping(uint256 => address) public creator;\n\n    event NFTMinted(address _to, uint256 tokenId);\n    event balancePaid(address _to, uint256 amount);\n\n    constructor() ERC721(\"ArcadioNFT\", \"ARCAD\") {\n        paymentAddress = payable(owner());\n    }\n\n    function _baseURI() internal pure override returns (string memory) {\n        return \"ipfs://\";\n    }\n\n    function setPrice(uint256 mintPrice) public onlyOwner {\n        price = mintPrice;\n    }\n\n    function setMaxSupply(uint256 newMaxSupply) public onlyOwner {\n        maxSupply = newMaxSupply;\n    }\n\n    function isContentOwned(string memory uri) public view returns (bool) {\n        return existingURIs[uri] == 1;\n    }\n\n    function updatePaymentAddress(address payable newAddress) public onlyOwner {\n        paymentAddress = newAddress;\n    }\n\n    function safeMint(address to, string memory uri) public onlyOwner {\n        require(totalSupply() < maxSupply, \"All NFTs have been minted\");\n        uint256 tokenId = _tokenIdCounter.current();\n        _tokenIdCounter.increment();\n        _safeMint(to, tokenId);\n        _setTokenURI(tokenId, uri);\n        creator[tokenId] = msg.sender;\n    }\n\n    function payToMint(string memory metadataURI)\n        public\n        payable\n        returns (uint256)\n    {\n        require(\n            existingURIs[metadataURI] != 1,\n            \"Arcadio Machine NFT already minted!\"\n        );\n        require(msg.value >= price, \"Not sufficient price. Need to pay up!\");\n        require(totalSupply() < maxSupply, \"All NFTs have been minted\");\n        uint256 newItemId = _tokenIdCounter.current();\n        _tokenIdCounter.increment();\n        existingURIs[metadataURI] = 1;\n\n        _safeMint(msg.sender, newItemId);\n        _setTokenURI(newItemId, metadataURI);\n        emit NFTMinted(msg.sender, newItemId);\n\n        creator[newItemId] = msg.sender;\n        payBalance(msg.value);\n        return newItemId;\n    }\n\n    function payBalance(uint256 amount) private {\n        payable(paymentAddress).transfer(amount);\n        emit balancePaid(paymentAddress, amount);\n    }\n\n    // The following functions are overrides required by Solidity.\n\n    function _beforeTokenTransfer(\n        address from,\n        address to,\n        uint256 tokenId\n    ) internal override(ERC721, ERC721Enumerable) {\n        super._beforeTokenTransfer(from, to, tokenId);\n    }\n\n    function _burn(uint256 tokenId)\n        internal\n        override(ERC721, ERC721URIStorage)\n    {\n        super._burn(tokenId);\n    }\n\n    function tokenURI(uint256 tokenId)\n        public\n        view\n        override(ERC721, ERC721URIStorage)\n        returns (string memory)\n    {\n        return super.tokenURI(tokenId);\n    }\n\n    function supportsInterface(bytes4 interfaceId)\n        public\n        view\n        override(ERC721, ERC721Enumerable)\n        returns (bool)\n    {\n        return super.supportsInterface(interfaceId);\n    }\n}\n",
  "sourcePath": "/Users/rylan/Documents/Blockchain/Cryptodev/cryptechpy/Projects/smartcontract/contracts/ArcadioNFT.sol",
  "compiler": {
    "name": "solc",
    "version": "0.8.11+commit.d7f03943.Emscripten.clang"
  },
  "schemaVersion": "3.4.4",
  "updatedAt": "2022-03-06T16:50:35.053Z",
  "devdoc": {
    "kind": "dev",
    "methods": {
      "approve(address,uint256)": {
        "details": "See {IERC721-approve}."
      },
      "balanceOf(address)": {
        "details": "See {IERC721-balanceOf}."
      },
      "getApproved(uint256)": {
        "details": "See {IERC721-getApproved}."
      },
      "isApprovedForAll(address,address)": {
        "details": "See {IERC721-isApprovedForAll}."
      },
      "name()": {
        "details": "See {IERC721Metadata-name}."
      },
      "owner()": {
        "details": "Returns the address of the current owner."
      },
      "ownerOf(uint256)": {
        "details": "See {IERC721-ownerOf}."
      },
      "renounceOwnership()": {
        "details": "Leaves the contract without owner. It will not be possible to call `onlyOwner` functions anymore. Can only be called by the current owner. NOTE: Renouncing ownership will leave the contract without an owner, thereby removing any functionality that is only available to the owner."
      },
      "safeTransferFrom(address,address,uint256)": {
        "details": "See {IERC721-safeTransferFrom}."
      },
      "safeTransferFrom(address,address,uint256,bytes)": {
        "details": "See {IERC721-safeTransferFrom}."
      },
      "setApprovalForAll(address,bool)": {
        "details": "See {IERC721-setApprovalForAll}."
      },
      "symbol()": {
        "details": "See {IERC721Metadata-symbol}."
      },
      "tokenByIndex(uint256)": {
        "details": "See {IERC721Enumerable-tokenByIndex}."
      },
      "tokenOfOwnerByIndex(address,uint256)": {
        "details": "See {IERC721Enumerable-tokenOfOwnerByIndex}."
      },
      "totalSupply()": {
        "details": "See {IERC721Enumerable-totalSupply}."
      },
      "transferFrom(address,address,uint256)": {
        "details": "See {IERC721-transferFrom}."
      },
      "transferOwnership(address)": {
        "details": "Transfers ownership of the contract to a new account (`newOwner`). Can only be called by the current owner."
      }
    },
    "version": 1
  },
  "userdoc": {
    "kind": "user",
    "methods": {},
    "version": 1
  }
}