{
  "contractName": "ArcadioNFT",
  "abi": [
    {
      "inputs": [],
      "stateMutability": "nonpayable",
      "type": "constructor"
    },
    {
      "anonymous": false,
      "inputs": [
        {
          "indexed": true,
          "internalType": "address",
          "name": "owner",
          "type": "address"
        },
        {
          "indexed": true,
          "internalType": "address",
          "name": "approved",
          "type": "address"
        },
        {
          "indexed": true,
          "internalType": "uint256",
          "name": "tokenId",
          "type": "uint256"
        }
      ],
      "name": "Approval",
      "type": "event"
    },
    {
      "anonymous": false,
      "inputs": [
        {
          "indexed": true,
          "internalType": "address",
          "name": "owner",
          "type": "address"
        },
        {
          "indexed": true,
          "internalType": "address",
          "name": "operator",
          "type": "address"
        },
        {
          "indexed": false,
          "internalType": "bool",
          "name": "approved",
          "type": "bool"
        }
      ],
      "name": "ApprovalForAll",
      "type": "event"
    },
    {
      "anonymous": false,
      "inputs": [
        {
          "indexed": false,
          "internalType": "address",
          "name": "_to",
          "type": "address"
        },
        {
          "indexed": false,
          "internalType": "uint256",
          "name": "tokenId",
          "type": "uint256"
        }
      ],
      "name": "NFTMinted",
      "type": "event"
    },
    {
      "anonymous": false,
      "inputs": [
        {
          "indexed": true,
          "internalType": "address",
          "name": "previousOwner",
          "type": "address"
        },
        {
          "indexed": true,
          "internalType": "address",
          "name": "newOwner",
          "type": "address"
        }
      ],
      "name": "OwnershipTransferred",
      "type": "event"
    },
    {
      "anonymous": false,
      "inputs": [
        {
          "indexed": true,
          "internalType": "address",
          "name": "from",
          "type": "address"
        },
        {
          "indexed": true,
          "internalType": "address",
          "name": "to",
          "type": "address"
        },
        {
          "indexed": true,
          "internalType": "uint256",
          "name": "tokenId",
          "type": "uint256"
        }
      ],
      "name": "Transfer",
      "type": "event"
    },
    {
      "anonymous": false,
      "inputs": [
        {
          "indexed": false,
          "internalType": "address",
          "name": "_to",
          "type": "address"
        },
        {
          "indexed": false,
          "internalType": "uint256",
          "name": "amount",
          "type": "uint256"
        }
      ],
      "name": "balancePaid",
      "type": "event"
    },
    {
      "inputs": [
        {
          "internalType": "address",
          "name": "to",
          "type": "address"
        },
        {
          "internalType": "uint256",
          "name": "tokenId",
          "type": "uint256"
        }
      ],
      "name": "approve",
      "outputs": [],
      "stateMutability": "nonpayable",
      "type": "function"
    },
    {
      "inputs": [
        {
          "internalType": "address",
          "name": "owner",
          "type": "address"
        }
      ],
      "name": "balanceOf",
      "outputs": [
        {
          "internalType": "uint256",
          "name": "",
          "type": "uint256"
        }
      ],
      "stateMutability": "view",
      "type": "function",
      "constant": true
    },
    {
      "inputs": [
        {
          "internalType": "uint256",
          "name": "",
          "type": "uint256"
        }
      ],
      "name": "creator",
      "outputs": [
        {
          "internalType": "address",
          "name": "",
          "type": "address"
        }
      ],
      "stateMutability": "view",
      "type": "function",
      "constant": true
    },
    {
      "inputs": [
        {
          "internalType": "uint256",
          "name": "tokenId",
          "type": "uint256"
        }
      ],
      "name": "getApproved",
      "outputs": [
        {
          "internalType": "address",
          "name": "",
          "type": "address"
        }
      ],
      "stateMutability": "view",
      "type": "function",
      "constant": true
    },
    {
      "inputs": [
        {
          "internalType": "address",
          "name": "owner",
          "type": "address"
        },
        {
          "internalType": "address",
          "name": "operator",
          "type": "address"
        }
      ],
      "name": "isApprovedForAll",
      "outputs": [
        {
          "internalType": "bool",
          "name": "",
          "type": "bool"
        }
      ],
      "stateMutability": "view",
      "type": "function",
      "constant": true
    },
    {
      "inputs": [],
      "name": "maxSupply",
      "outputs": [
        {
          "internalType": "uint256",
          "name": "",
          "type": "uint256"
        }
      ],
      "stateMutability": "view",
      "type": "function",
      "constant": true
    },
    {
      "inputs": [],
      "name": "name",
      "outputs": [
        {
          "internalType": "string",
          "name": "",
          "type": "string"
        }
      ],
      "stateMutability": "view",
      "type": "function",
      "constant": true
    },
    {
      "inputs": [],
      "name": "owner",
      "outputs": [
        {
          "internalType": "address",
          "name": "",
          "type": "address"
        }
      ],
      "stateMutability": "view",
      "type": "function",
      "constant": true
    },
    {
      "inputs": [
        {
          "internalType": "uint256",
          "name": "tokenId",
          "type": "uint256"
        }
      ],
      "name": "ownerOf",
      "outputs": [
        {
          "internalType": "address",
          "name": "",
          "type": "address"
        }
      ],
      "stateMutability": "view",
      "type": "function",
      "constant": true
    },
    {
      "inputs": [],
      "name": "price",
      "outputs": [
        {
          "internalType": "uint256",
          "name": "",
          "type": "uint256"
        }
      ],
      "stateMutability": "view",
      "type": "function",
      "constant": true
    },
    {
      "inputs": [],
      "name": "publicMintEnabled",
      "outputs": [
        {
          "internalType": "bool",
          "name": "",
          "type": "bool"
        }
      ],
      "stateMutability": "view",
      "type": "function",
      "constant": true
    },
    {
      "inputs": [],
      "name": "renounceOwnership",
      "outputs": [],
      "stateMutability": "nonpayable",
      "type": "function"
    },
    {
      "inputs": [
        {
          "internalType": "address",
          "name": "from",
          "type": "address"
        },
        {
          "internalType": "address",
          "name": "to",
          "type": "address"
        },
        {
          "internalType": "uint256",
          "name": "tokenId",
          "type": "uint256"
        }
      ],
      "name": "safeTransferFrom",
      "outputs": [],
      "stateMutability": "nonpayable",
      "type": "function"
    },
    {
      "inputs": [
        {
          "internalType": "address",
          "name": "from",
          "type": "address"
        },
        {
          "internalType": "address",
          "name": "to",
          "type": "address"
        },
        {
          "internalType": "uint256",
          "name": "tokenId",
          "type": "uint256"
        },
        {
          "internalType": "bytes",
          "name": "_data",
          "type": "bytes"
        }
      ],
      "name": "safeTransferFrom",
      "outputs": [],
      "stateMutability": "nonpayable",
      "type": "function"
    },
    {
      "inputs": [
        {
          "internalType": "address",
          "name": "operator",
          "type": "address"
        },
        {
          "internalType": "bool",
          "name": "approved",
          "type": "bool"
        }
      ],
      "name": "setApprovalForAll",
      "outputs": [],
      "stateMutability": "nonpayable",
      "type": "function"
    },
    {
      "inputs": [],
      "name": "symbol",
      "outputs": [
        {
          "internalType": "string",
          "name": "",
          "type": "string"
        }
      ],
      "stateMutability": "view",
      "type": "function",
      "constant": true
    },
    {
      "inputs": [
        {
          "internalType": "uint256",
          "name": "index",
          "type": "uint256"
        }
      ],
      "name": "tokenByIndex",
      "outputs": [
        {
          "internalType": "uint256",
          "name": "",
          "type": "uint256"
        }
      ],
      "stateMutability": "view",
      "type": "function",
      "constant": true
    },
    {
      "inputs": [
        {
          "internalType": "address",
          "name": "owner",
          "type": "address"
        },
        {
          "internalType": "uint256",
          "name": "index",
          "type": "uint256"
        }
      ],
      "name": "tokenOfOwnerByIndex",
      "outputs": [
        {
          "internalType": "uint256",
          "name": "",
          "type": "uint256"
        }
      ],
      "stateMutability": "view",
      "type": "function",
      "constant": true
    },
    {
      "inputs": [],
      "name": "totalSupply",
      "outputs": [
        {
          "internalType": "uint256",
          "name": "",
          "type": "uint256"
        }
      ],
      "stateMutability": "view",
      "type": "function",
      "constant": true
    },
    {
      "inputs": [
        {
          "internalType": "address",
          "name": "from",
          "type": "address"
        },
        {
          "internalType": "address",
          "name": "to",
          "type": "address"
        },
        {
          "internalType": "uint256",
          "name": "tokenId",
          "type": "uint256"
        }
      ],
      "name": "transferFrom",
      "outputs": [],
      "stateMutability": "nonpayable",
      "type": "function"
    },
    {
      "inputs": [
        {
          "internalType": "address",
          "name": "newOwner",
          "type": "address"
        }
      ],
      "name": "transferOwnership",
      "outputs": [],
      "stateMutability": "nonpayable",
      "type": "function"
    },
    {
      "inputs": [
        {
          "internalType": "bool",
          "name": "enabled",
          "type": "bool"
        }
      ],
      "name": "setPublicMintEnabled",
      "outputs": [],
      "stateMutability": "nonpayable",
      "type": "function"
    },
    {
      "inputs": [
        {
          "internalType": "uint256",
          "name": "mintPrice",
          "type": "uint256"
        }
      ],
      "name": "setPrice",
      "outputs": [],
      "stateMutability": "nonpayable",
      "type": "function"
    },
    {
      "inputs": [
        {
          "internalType": "uint256",
          "name": "newMaxSupply",
          "type": "uint256"
        }
      ],
      "name": "setMaxSupply",
      "outputs": [],
      "stateMutability": "nonpayable",
      "type": "function"
    },
    {
      "inputs": [
        {
          "internalType": "string",
          "name": "uri",
          "type": "string"
        }
      ],
      "name": "isContentOwned",
      "outputs": [
        {
          "internalType": "bool",
          "name": "",
          "type": "bool"
        }
      ],
      "stateMutability": "view",
      "type": "function",
      "constant": true
    },
    {
      "inputs": [
        {
          "internalType": "address payable",
          "name": "newAddress",
          "type": "address"
        }
      ],
      "name": "updatePaymentAddress",
      "outputs": [],
      "stateMutability": "nonpayable",
      "type": "function"
    },
    {
      "inputs": [
        {
          "internalType": "address",
          "name": "to",
          "type": "address"
        },
        {
          "internalType": "string",
          "name": "uri",
          "type": "string"
        }
      ],
      "name": "safeMint",
      "outputs": [],
      "stateMutability": "nonpayable",
      "type": "function"
    },
    {
      "inputs": [
        {
          "internalType": "string",
          "name": "metadataURI",
          "type": "string"
        }
      ],
      "name": "payToMint",
      "outputs": [
        {
          "internalType": "uint256",
          "name": "",
          "type": "uint256"
        }
      ],
      "stateMutability": "payable",
      "type": "function",
      "payable": true
    },
    {
      "inputs": [
        {
          "internalType": "uint256",
          "name": "tokenId",
          "type": "uint256"
        }
      ],
      "name": "tokenURI",
      "outputs": [
        {
          "internalType": "string",
          "name": "",
          "type": "string"
        }
      ],
      "stateMutability": "view",
      "type": "function",
      "constant": true
    },
    {
      "inputs": [
        {
          "internalType": "bytes4",
          "name": "interfaceId",
          "type": "bytes4"
        }
      ],
      "name": "supportsInterface",
      "outputs": [
        {
          "internalType": "bool",
          "name": "",
          "type": "bool"
        }
      ],
      "stateMutability": "view",
      "type": "function",
      "constant": true
    }
  ],
  "bytecode": "0x60806040526000600d60006101000a81548160ff02191690831515021790555067016345785d8a0000600e556103e7600f553480156200003e57600080fd5b506040518060400160405280600a81526020017f4172636164696f4e4654000000000000000000000000000000000000000000008152506040518060400160405280600581526020017f41524341440000000000000000000000000000000000000000000000000000008152508160009080519060200190620000c39291906200024d565b508060019080519060200190620000dc9291906200024d565b505050620000ff620000f36200015560201b60201c565b6200015d60201b60201c565b6200010f6200022360201b60201c565b601060006101000a81548173ffffffffffffffffffffffffffffffffffffffff021916908373ffffffffffffffffffffffffffffffffffffffff16021790555062000362565b600033905090565b6000600b60009054906101000a900473ffffffffffffffffffffffffffffffffffffffff16905081600b60006101000a81548173ffffffffffffffffffffffffffffffffffffffff021916908373ffffffffffffffffffffffffffffffffffffffff1602179055508173ffffffffffffffffffffffffffffffffffffffff168173ffffffffffffffffffffffffffffffffffffffff167f8be0079c531659141344cd1fd0a4f28419497f9722a3daafe3b4186f6b6457e060405160405180910390a35050565b6000600b60009054906101000a900473ffffffffffffffffffffffffffffffffffffffff16905090565b8280546200025b906200032c565b90600052602060002090601f0160209004810192826200027f5760008555620002cb565b82601f106200029a57805160ff1916838001178555620002cb565b82800160010185558215620002cb579182015b82811115620002ca578251825591602001919060010190620002ad565b5b509050620002da9190620002de565b5090565b5b80821115620002f9576000816000905550600101620002df565b5090565b7f4e487b7100000000000000000000000000000000000000000000000000000000600052602260045260246000fd5b600060028204905060018216806200034557607f821691505b602082108114156200035c576200035b620002fd565b5b50919050565b61463a80620003726000396000f3fe6080604052600436106101cd5760003560e01c8063715018a6116100f7578063a22cb46511610095578063d5abeb0111610064578063d5abeb01146106b1578063e985e9c5146106dc578063f2fde38b14610719578063fe475f6b14610742576101cd565b8063a22cb465146105f9578063b88d4fde14610622578063c87b56dd1461064b578063d204c45e14610688576101cd565b806391b7f5ed116100d157806391b7f5ed1461053d57806395d89b41146105665780639f1cabc614610591578063a035b1fe146105ce576101cd565b8063715018a6146104d2578063818668d7146104e95780638da5cb5b14610512576101cd565b80632f745c591161016f578063537efe311161013e578063537efe31146103ff5780636352211e1461042f5780636f8b44b01461046c57806370a0823114610495576101cd565b80632f745c591461031f57806342842e0e1461035c5780634f6ccce714610385578063510b5158146103c2576101cd565b8063095ea7b3116101ab578063095ea7b3146102775780630f4161aa146102a057806318160ddd146102cb57806323b872dd146102f6576101cd565b806301ffc9a7146101d257806306fdde031461020f578063081812fc1461023a575b600080fd5b3480156101de57600080fd5b506101f960048036038101906101f49190612da6565b61076b565b6040516102069190612dee565b60405180910390f35b34801561021b57600080fd5b5061022461077d565b6040516102319190612ea2565b60405180910390f35b34801561024657600080fd5b50610261600480360381019061025c9190612efa565b61080f565b60405161026e9190612f68565b60405180910390f35b34801561028357600080fd5b5061029e60048036038101906102999190612faf565b610894565b005b3480156102ac57600080fd5b506102b56109ac565b6040516102c29190612dee565b60405180910390f35b3480156102d757600080fd5b506102e06109bf565b6040516102ed9190612ffe565b60405180910390f35b34801561030257600080fd5b5061031d60048036038101906103189190613019565b6109cc565b005b34801561032b57600080fd5b5061034660048036038101906103419190612faf565b610a2c565b6040516103539190612ffe565b60405180910390f35b34801561036857600080fd5b50610383600480360381019061037e9190613019565b610ad1565b005b34801561039157600080fd5b506103ac60048036038101906103a79190612efa565b610af1565b6040516103b99190612ffe565b60405180910390f35b3480156103ce57600080fd5b506103e960048036038101906103e49190612efa565b610b62565b6040516103f69190612f68565b60405180910390f35b610419600480360381019061041491906131a1565b610b95565b6040516104269190612ffe565b60405180910390f35b34801561043b57600080fd5b5061045660048036038101906104519190612efa565b610dc5565b6040516104639190612f68565b60405180910390f35b34801561047857600080fd5b50610493600480360381019061048e9190612efa565b610e77565b005b3480156104a157600080fd5b506104bc60048036038101906104b791906131ea565b610efd565b6040516104c99190612ffe565b60405180910390f35b3480156104de57600080fd5b506104e7610fb5565b005b3480156104f557600080fd5b50610510600480360381019061050b9190613243565b61103d565b005b34801561051e57600080fd5b506105276110d6565b6040516105349190612f68565b60405180910390f35b34801561054957600080fd5b50610564600480360381019061055f9190612efa565b611100565b005b34801561057257600080fd5b5061057b611186565b6040516105889190612ea2565b60405180910390f35b34801561059d57600080fd5b506105b860048036038101906105b391906131a1565b611218565b6040516105c59190612dee565b60405180910390f35b3480156105da57600080fd5b506105e3611243565b6040516105f09190612ffe565b60405180910390f35b34801561060557600080fd5b50610620600480360381019061061b9190613270565b611249565b005b34801561062e57600080fd5b5061064960048036038101906106449190613351565b61125f565b005b34801561065757600080fd5b50610672600480360381019061066d9190612efa565b6112c1565b60405161067f9190612ea2565b60405180910390f35b34801561069457600080fd5b506106af60048036038101906106aa91906133d4565b6112d3565b005b3480156106bd57600080fd5b506106c6611456565b6040516106d39190612ffe565b60405180910390f35b3480156106e857600080fd5b5061070360048036038101906106fe9190613430565b61145c565b6040516107109190612dee565b60405180910390f35b34801561072557600080fd5b50610740600480360381019061073b91906131ea565b6114f0565b005b34801561074e57600080fd5b50610769600480360381019061076491906134ae565b6115e8565b005b6000610776826116a8565b9050919050565b60606000805461078c9061350a565b80601f01602080910402602001604051908101604052809291908181526020018280546107b89061350a565b80156108055780601f106107da57610100808354040283529160200191610805565b820191906000526020600020905b8154815290600101906020018083116107e857829003601f168201915b5050505050905090565b600061081a82611722565b610859576040517f08c379a0000000000000000000000000000000000000000000000000000000008152600401610850906135ae565b60405180910390fd5b6004600083815260200190815260200160002060009054906101000a900473ffffffffffffffffffffffffffffffffffffffff169050919050565b600061089f82610dc5565b90508073ffffffffffffffffffffffffffffffffffffffff168373ffffffffffffffffffffffffffffffffffffffff161415610910576040517f08c379a000000000000000000000000000000000000000000000000000000000815260040161090790613640565b60405180910390fd5b8073ffffffffffffffffffffffffffffffffffffffff1661092f61178e565b73ffffffffffffffffffffffffffffffffffffffff16148061095e575061095d8161095861178e565b61145c565b5b61099d576040517f08c379a0000000000000000000000000000000000000000000000000000000008152600401610994906136d2565b60405180910390fd5b6109a78383611796565b505050565b600d60009054906101000a900460ff1681565b6000600880549050905090565b6109dd6109d761178e565b8261184f565b610a1c576040517f08c379a0000000000000000000000000000000000000000000000000000000008152600401610a1390613764565b60405180910390fd5b610a2783838361192d565b505050565b6000610a3783610efd565b8210610a78576040517f08c379a0000000000000000000000000000000000000000000000000000000008152600401610a6f906137f6565b60405180910390fd5b600660008473ffffffffffffffffffffffffffffffffffffffff1673ffffffffffffffffffffffffffffffffffffffff168152602001908152602001600020600083815260200190815260200160002054905092915050565b610aec8383836040518060200160405280600081525061125f565b505050565b6000610afb6109bf565b8210610b3c576040517f08c379a0000000000000000000000000000000000000000000000000000000008152600401610b3390613888565b60405180910390fd5b60088281548110610b5057610b4f6138a8565b5b90600052602060002001549050919050565b60126020528060005260406000206000915054906101000a900473ffffffffffffffffffffffffffffffffffffffff1681565b6000600d60009054906101000a900460ff16610be6576040517f08c379a0000000000000000000000000000000000000000000000000000000008152600401610bdd90613923565b60405180910390fd5b6001601183604051610bf8919061397f565b9081526020016040518091039020541415610c48576040517f08c379a0000000000000000000000000000000000000000000000000000000008152600401610c3f90613a08565b60405180910390fd5b600e54341015610c8d576040517f08c379a0000000000000000000000000000000000000000000000000000000008152600401610c8490613a9a565b60405180910390fd5b600f54610c986109bf565b10610cd8576040517f08c379a0000000000000000000000000000000000000000000000000000000008152600401610ccf90613b06565b60405180910390fd5b6000610ce4600c611b94565b9050610cf0600c611ba2565b6001601184604051610d02919061397f565b908152602001604051809103902081905550610d1e3382611bb8565b610d288184611bd6565b7f4cc0a9c4a99ddc700de1af2c9f916a7cbfdb71f14801ccff94061ad1ef8a80403382604051610d59929190613b26565b60405180910390a1336012600083815260200190815260200160002060006101000a81548173ffffffffffffffffffffffffffffffffffffffff021916908373ffffffffffffffffffffffffffffffffffffffff160217905550610dbc34611c4a565b80915050919050565b6000806002600084815260200190815260200160002060009054906101000a900473ffffffffffffffffffffffffffffffffffffffff169050600073ffffffffffffffffffffffffffffffffffffffff168173ffffffffffffffffffffffffffffffffffffffff161415610e6e576040517f08c379a0000000000000000000000000000000000000000000000000000000008152600401610e6590613bc1565b60405180910390fd5b80915050919050565b610e7f61178e565b73ffffffffffffffffffffffffffffffffffffffff16610e9d6110d6565b73ffffffffffffffffffffffffffffffffffffffff1614610ef3576040517f08c379a0000000000000000000000000000000000000000000000000000000008152600401610eea90613c2d565b60405180910390fd5b80600f8190555050565b60008073ffffffffffffffffffffffffffffffffffffffff168273ffffffffffffffffffffffffffffffffffffffff161415610f6e576040517f08c379a0000000000000000000000000000000000000000000000000000000008152600401610f6590613cbf565b60405180910390fd5b600360008373ffffffffffffffffffffffffffffffffffffffff1673ffffffffffffffffffffffffffffffffffffffff168152602001908152602001600020549050919050565b610fbd61178e565b73ffffffffffffffffffffffffffffffffffffffff16610fdb6110d6565b73ffffffffffffffffffffffffffffffffffffffff1614611031576040517f08c379a000000000000000000000000000000000000000000000000000000000815260040161102890613c2d565b60405180910390fd5b61103b6000611d11565b565b61104561178e565b73ffffffffffffffffffffffffffffffffffffffff166110636110d6565b73ffffffffffffffffffffffffffffffffffffffff16146110b9576040517f08c379a00000000000000000000000000000000000000000000000000000000081526004016110b090613c2d565b60405180910390fd5b80600d60006101000a81548160ff02191690831515021790555050565b6000600b60009054906101000a900473ffffffffffffffffffffffffffffffffffffffff16905090565b61110861178e565b73ffffffffffffffffffffffffffffffffffffffff166111266110d6565b73ffffffffffffffffffffffffffffffffffffffff161461117c576040517f08c379a000000000000000000000000000000000000000000000000000000000815260040161117390613c2d565b60405180910390fd5b80600e8190555050565b6060600180546111959061350a565b80601f01602080910402602001604051908101604052809291908181526020018280546111c19061350a565b801561120e5780601f106111e35761010080835404028352916020019161120e565b820191906000526020600020905b8154815290600101906020018083116111f157829003601f168201915b5050505050905090565b6000600160118360405161122c919061397f565b908152602001604051809103902054149050919050565b600e5481565b61125b61125461178e565b8383611dd7565b5050565b61127061126a61178e565b8361184f565b6112af576040517f08c379a00000000000000000000000000000000000000000000000000000000081526004016112a690613764565b60405180910390fd5b6112bb84848484611f44565b50505050565b60606112cc82611fa0565b9050919050565b6112db61178e565b73ffffffffffffffffffffffffffffffffffffffff166112f96110d6565b73ffffffffffffffffffffffffffffffffffffffff161461134f576040517f08c379a000000000000000000000000000000000000000000000000000000000815260040161134690613c2d565b60405180910390fd5b600f5461135a6109bf565b1061139a576040517f08c379a000000000000000000000000000000000000000000000000000000000815260040161139190613b06565b60405180910390fd5b60006113a6600c611b94565b90506113b2600c611ba2565b6113bc8382611bb8565b6113c68183611bd6565b7f4cc0a9c4a99ddc700de1af2c9f916a7cbfdb71f14801ccff94061ad1ef8a804083826040516113f7929190613b26565b60405180910390a1826012600083815260200190815260200160002060006101000a81548173ffffffffffffffffffffffffffffffffffffffff021916908373ffffffffffffffffffffffffffffffffffffffff160217905550505050565b600f5481565b6000600560008473ffffffffffffffffffffffffffffffffffffffff1673ffffffffffffffffffffffffffffffffffffffff16815260200190815260200160002060008373ffffffffffffffffffffffffffffffffffffffff1673ffffffffffffffffffffffffffffffffffffffff16815260200190815260200160002060009054906101000a900460ff16905092915050565b6114f861178e565b73ffffffffffffffffffffffffffffffffffffffff166115166110d6565b73ffffffffffffffffffffffffffffffffffffffff161461156c576040517f08c379a000000000000000000000000000000000000000000000000000000000815260040161156390613c2d565b60405180910390fd5b600073ffffffffffffffffffffffffffffffffffffffff168173ffffffffffffffffffffffffffffffffffffffff1614156115dc576040517f08c379a00000000000000000000000000000000000000000000000000000000081526004016115d390613d51565b60405180910390fd5b6115e581611d11565b50565b6115f061178e565b73ffffffffffffffffffffffffffffffffffffffff1661160e6110d6565b73ffffffffffffffffffffffffffffffffffffffff1614611664576040517f08c379a000000000000000000000000000000000000000000000000000000000815260040161165b90613c2d565b60405180910390fd5b80601060006101000a81548173ffffffffffffffffffffffffffffffffffffffff021916908373ffffffffffffffffffffffffffffffffffffffff16021790555050565b60007f780e9d63000000000000000000000000000000000000000000000000000000007bffffffffffffffffffffffffffffffffffffffffffffffffffffffff1916827bffffffffffffffffffffffffffffffffffffffffffffffffffffffff1916148061171b575061171a826120f2565b5b9050919050565b60008073ffffffffffffffffffffffffffffffffffffffff166002600084815260200190815260200160002060009054906101000a900473ffffffffffffffffffffffffffffffffffffffff1673ffffffffffffffffffffffffffffffffffffffff1614159050919050565b600033905090565b816004600083815260200190815260200160002060006101000a81548173ffffffffffffffffffffffffffffffffffffffff021916908373ffffffffffffffffffffffffffffffffffffffff160217905550808273ffffffffffffffffffffffffffffffffffffffff1661180983610dc5565b73ffffffffffffffffffffffffffffffffffffffff167f8c5be1e5ebec7d5bd14f71427d1e84f3dd0314c0f7b2291e5b200ac8c7c3b92560405160405180910390a45050565b600061185a82611722565b611899576040517f08c379a000000000000000000000000000000000000000000000000000000000815260040161189090613de3565b60405180910390fd5b60006118a483610dc5565b90508073ffffffffffffffffffffffffffffffffffffffff168473ffffffffffffffffffffffffffffffffffffffff16148061191357508373ffffffffffffffffffffffffffffffffffffffff166118fb8461080f565b73ffffffffffffffffffffffffffffffffffffffff16145b806119245750611923818561145c565b5b91505092915050565b8273ffffffffffffffffffffffffffffffffffffffff1661194d82610dc5565b73ffffffffffffffffffffffffffffffffffffffff16146119a3576040517f08c379a000000000000000000000000000000000000000000000000000000000815260040161199a90613e75565b60405180910390fd5b600073ffffffffffffffffffffffffffffffffffffffff168273ffffffffffffffffffffffffffffffffffffffff161415611a13576040517f08c379a0000000000000000000000000000000000000000000000000000000008152600401611a0a90613f07565b60405180910390fd5b611a1e8383836121d4565b611a29600082611796565b6001600360008573ffffffffffffffffffffffffffffffffffffffff1673ffffffffffffffffffffffffffffffffffffffff1681526020019081526020016000206000828254611a799190613f56565b925050819055506001600360008473ffffffffffffffffffffffffffffffffffffffff1673ffffffffffffffffffffffffffffffffffffffff1681526020019081526020016000206000828254611ad09190613f8a565b92505081905550816002600083815260200190815260200160002060006101000a81548173ffffffffffffffffffffffffffffffffffffffff021916908373ffffffffffffffffffffffffffffffffffffffff160217905550808273ffffffffffffffffffffffffffffffffffffffff168473ffffffffffffffffffffffffffffffffffffffff167fddf252ad1be2c89b69c2b068fc378daa952ba7f163c4a11628f55a4df523b3ef60405160405180910390a4611b8f8383836121e4565b505050565b600081600001549050919050565b6001816000016000828254019250508190555050565b611bd28282604051806020016040528060008152506121e9565b5050565b611bdf82611722565b611c1e576040517f08c379a0000000000000000000000000000000000000000000000000000000008152600401611c1590614052565b60405180910390fd5b80600a60008481526020019081526020016000209080519060200190611c45929190612c97565b505050565b601060009054906101000a900473ffffffffffffffffffffffffffffffffffffffff1673ffffffffffffffffffffffffffffffffffffffff166108fc829081150290604051600060405180830381858888f19350505050158015611cb2573d6000803e3d6000fd5b507f7c7dff95379c56ff5dc0486493696433da5534ef4b8118a7ed8d511c2b289b7f601060009054906101000a900473ffffffffffffffffffffffffffffffffffffffff1682604051611d069291906140d1565b60405180910390a150565b6000600b60009054906101000a900473ffffffffffffffffffffffffffffffffffffffff16905081600b60006101000a81548173ffffffffffffffffffffffffffffffffffffffff021916908373ffffffffffffffffffffffffffffffffffffffff1602179055508173ffffffffffffffffffffffffffffffffffffffff168173ffffffffffffffffffffffffffffffffffffffff167f8be0079c531659141344cd1fd0a4f28419497f9722a3daafe3b4186f6b6457e060405160405180910390a35050565b8173ffffffffffffffffffffffffffffffffffffffff168373ffffffffffffffffffffffffffffffffffffffff161415611e46576040517f08c379a0000000000000000000000000000000000000000000000000000000008152600401611e3d90614146565b60405180910390fd5b80600560008573ffffffffffffffffffffffffffffffffffffffff1673ffffffffffffffffffffffffffffffffffffffff16815260200190815260200160002060008473ffffffffffffffffffffffffffffffffffffffff1673ffffffffffffffffffffffffffffffffffffffff16815260200190815260200160002060006101000a81548160ff0219169083151502179055508173ffffffffffffffffffffffffffffffffffffffff168373ffffffffffffffffffffffffffffffffffffffff167f17307eab39ab6107e8899845ad3d59bd9653f200f220920489ca2b5937696c3183604051611f379190612dee565b60405180910390a3505050565b611f4f84848461192d565b611f5b84848484612244565b611f9a576040517f08c379a0000000000000000000000000000000000000000000000000000000008152600401611f91906141d8565b60405180910390fd5b50505050565b6060611fab82611722565b611fea576040517f08c379a0000000000000000000000000000000000000000000000000000000008152600401611fe19061426a565b60405180910390fd5b6000600a6000848152602001908152602001600020805461200a9061350a565b80601f01602080910402602001604051908101604052809291908181526020018280546120369061350a565b80156120835780601f1061205857610100808354040283529160200191612083565b820191906000526020600020905b81548152906001019060200180831161206657829003601f168201915b5050505050905060006120946123cc565b90506000815114156120aa5781925050506120ed565b6000825111156120df5780826040516020016120c792919061428a565b604051602081830303815290604052925050506120ed565b6120e884612409565b925050505b919050565b60007f80ac58cd000000000000000000000000000000000000000000000000000000007bffffffffffffffffffffffffffffffffffffffffffffffffffffffff1916827bffffffffffffffffffffffffffffffffffffffffffffffffffffffff191614806121bd57507f5b5e139f000000000000000000000000000000000000000000000000000000007bffffffffffffffffffffffffffffffffffffffffffffffffffffffff1916827bffffffffffffffffffffffffffffffffffffffffffffffffffffffff1916145b806121cd57506121cc826124b0565b5b9050919050565b6121df83838361251a565b505050565b505050565b6121f3838361262e565b6122006000848484612244565b61223f576040517f08c379a0000000000000000000000000000000000000000000000000000000008152600401612236906141d8565b60405180910390fd5b505050565b60006122658473ffffffffffffffffffffffffffffffffffffffff16612808565b156123bf578373ffffffffffffffffffffffffffffffffffffffff1663150b7a0261228e61178e565b8786866040518563ffffffff1660e01b81526004016122b09493929190614303565b6020604051808303816000875af19250505080156122ec57506040513d601f19601f820116820180604052508101906122e99190614364565b60015b61236f573d806000811461231c576040519150601f19603f3d011682016040523d82523d6000602084013e612321565b606091505b50600081511415612367576040517f08c379a000000000000000000000000000000000000000000000000000000000815260040161235e906141d8565b60405180910390fd5b805181602001fd5b63150b7a0260e01b7bffffffffffffffffffffffffffffffffffffffffffffffffffffffff1916817bffffffffffffffffffffffffffffffffffffffffffffffffffffffff1916149150506123c4565b600190505b949350505050565b60606040518060400160405280600781526020017f697066733a2f2f00000000000000000000000000000000000000000000000000815250905090565b606061241482611722565b612453576040517f08c379a000000000000000000000000000000000000000000000000000000000815260040161244a90614403565b60405180910390fd5b600061245d6123cc565b9050600081511161247d57604051806020016040528060008152506124a8565b806124878461282b565b60405160200161249892919061428a565b6040516020818303038152906040525b915050919050565b60007f01ffc9a7000000000000000000000000000000000000000000000000000000007bffffffffffffffffffffffffffffffffffffffffffffffffffffffff1916827bffffffffffffffffffffffffffffffffffffffffffffffffffffffff1916149050919050565b61252583838361298c565b600073ffffffffffffffffffffffffffffffffffffffff168373ffffffffffffffffffffffffffffffffffffffff1614156125685761256381612991565b6125a7565b8173ffffffffffffffffffffffffffffffffffffffff168373ffffffffffffffffffffffffffffffffffffffff16146125a6576125a583826129da565b5b5b600073ffffffffffffffffffffffffffffffffffffffff168273ffffffffffffffffffffffffffffffffffffffff1614156125ea576125e581612b47565b612629565b8273ffffffffffffffffffffffffffffffffffffffff168273ffffffffffffffffffffffffffffffffffffffff1614612628576126278282612c18565b5b5b505050565b600073ffffffffffffffffffffffffffffffffffffffff168273ffffffffffffffffffffffffffffffffffffffff16141561269e576040517f08c379a00000000000000000000000000000000000000000000000000000000081526004016126959061446f565b60405180910390fd5b6126a781611722565b156126e7576040517f08c379a00000000000000000000000000000000000000000000000000000000081526004016126de906144db565b60405180910390fd5b6126f3600083836121d4565b6001600360008473ffffffffffffffffffffffffffffffffffffffff1673ffffffffffffffffffffffffffffffffffffffff16815260200190815260200160002060008282546127439190613f8a565b92505081905550816002600083815260200190815260200160002060006101000a81548173ffffffffffffffffffffffffffffffffffffffff021916908373ffffffffffffffffffffffffffffffffffffffff160217905550808273ffffffffffffffffffffffffffffffffffffffff16600073ffffffffffffffffffffffffffffffffffffffff167fddf252ad1be2c89b69c2b068fc378daa952ba7f163c4a11628f55a4df523b3ef60405160405180910390a4612804600083836121e4565b5050565b6000808273ffffffffffffffffffffffffffffffffffffffff163b119050919050565b60606000821415612873576040518060400160405280600181526020017f30000000000000000000000000000000000000000000000000000000000000008152509050612987565b600082905060005b600082146128a557808061288e906144fb565b915050600a8261289e9190614573565b915061287b565b60008167ffffffffffffffff8111156128c1576128c0613076565b5b6040519080825280601f01601f1916602001820160405280156128f35781602001600182028036833780820191505090505b5090505b600085146129805760018261290c9190613f56565b9150600a8561291b91906145a4565b60306129279190613f8a565b60f81b81838151811061293d5761293c6138a8565b5b60200101907effffffffffffffffffffffffffffffffffffffffffffffffffffffffffffff1916908160001a905350600a856129799190614573565b94506128f7565b8093505050505b919050565b505050565b6008805490506009600083815260200190815260200160002081905550600881908060018154018082558091505060019003906000526020600020016000909190919091505550565b600060016129e784610efd565b6129f19190613f56565b9050600060076000848152602001908152602001600020549050818114612ad6576000600660008673ffffffffffffffffffffffffffffffffffffffff1673ffffffffffffffffffffffffffffffffffffffff168152602001908152602001600020600084815260200190815260200160002054905080600660008773ffffffffffffffffffffffffffffffffffffffff1673ffffffffffffffffffffffffffffffffffffffff168152602001908152602001600020600084815260200190815260200160002081905550816007600083815260200190815260200160002081905550505b6007600084815260200190815260200160002060009055600660008573ffffffffffffffffffffffffffffffffffffffff1673ffffffffffffffffffffffffffffffffffffffff16815260200190815260200160002060008381526020019081526020016000206000905550505050565b60006001600880549050612b5b9190613f56565b9050600060096000848152602001908152602001600020549050600060088381548110612b8b57612b8a6138a8565b5b906000526020600020015490508060088381548110612bad57612bac6138a8565b5b906000526020600020018190555081600960008381526020019081526020016000208190555060096000858152602001908152602001600020600090556008805480612bfc57612bfb6145d5565b5b6001900381819060005260206000200160009055905550505050565b6000612c2383610efd565b905081600660008573ffffffffffffffffffffffffffffffffffffffff1673ffffffffffffffffffffffffffffffffffffffff168152602001908152602001600020600083815260200190815260200160002081905550806007600084815260200190815260200160002081905550505050565b828054612ca39061350a565b90600052602060002090601f016020900481019282612cc55760008555612d0c565b82601f10612cde57805160ff1916838001178555612d0c565b82800160010185558215612d0c579182015b82811115612d0b578251825591602001919060010190612cf0565b5b509050612d199190612d1d565b5090565b5b80821115612d36576000816000905550600101612d1e565b5090565b6000604051905090565b600080fd5b600080fd5b60007fffffffff0000000000000000000000000000000000000000000000000000000082169050919050565b612d8381612d4e565b8114612d8e57600080fd5b50565b600081359050612da081612d7a565b92915050565b600060208284031215612dbc57612dbb612d44565b5b6000612dca84828501612d91565b91505092915050565b60008115159050919050565b612de881612dd3565b82525050565b6000602082019050612e036000830184612ddf565b92915050565b600081519050919050565b600082825260208201905092915050565b60005b83811015612e43578082015181840152602081019050612e28565b83811115612e52576000848401525b50505050565b6000601f19601f8301169050919050565b6000612e7482612e09565b612e7e8185612e14565b9350612e8e818560208601612e25565b612e9781612e58565b840191505092915050565b60006020820190508181036000830152612ebc8184612e69565b905092915050565b6000819050919050565b612ed781612ec4565b8114612ee257600080fd5b50565b600081359050612ef481612ece565b92915050565b600060208284031215612f1057612f0f612d44565b5b6000612f1e84828501612ee5565b91505092915050565b600073ffffffffffffffffffffffffffffffffffffffff82169050919050565b6000612f5282612f27565b9050919050565b612f6281612f47565b82525050565b6000602082019050612f7d6000830184612f59565b92915050565b612f8c81612f47565b8114612f9757600080fd5b50565b600081359050612fa981612f83565b92915050565b60008060408385031215612fc657612fc5612d44565b5b6000612fd485828601612f9a565b9250506020612fe585828601612ee5565b9150509250929050565b612ff881612ec4565b82525050565b60006020820190506130136000830184612fef565b92915050565b60008060006060848603121561303257613031612d44565b5b600061304086828701612f9a565b935050602061305186828701612f9a565b925050604061306286828701612ee5565b9150509250925092565b600080fd5b600080fd5b7f4e487b7100000000000000000000000000000000000000000000000000000000600052604160045260246000fd5b6130ae82612e58565b810181811067ffffffffffffffff821117156130cd576130cc613076565b5b80604052505050565b60006130e0612d3a565b90506130ec82826130a5565b919050565b600067ffffffffffffffff82111561310c5761310b613076565b5b61311582612e58565b9050602081019050919050565b82818337600083830152505050565b600061314461313f846130f1565b6130d6565b9050828152602081018484840111156131605761315f613071565b5b61316b848285613122565b509392505050565b600082601f8301126131885761318761306c565b5b8135613198848260208601613131565b91505092915050565b6000602082840312156131b7576131b6612d44565b5b600082013567ffffffffffffffff8111156131d5576131d4612d49565b5b6131e184828501613173565b91505092915050565b600060208284031215613200576131ff612d44565b5b600061320e84828501612f9a565b91505092915050565b61322081612dd3565b811461322b57600080fd5b50565b60008135905061323d81613217565b92915050565b60006020828403121561325957613258612d44565b5b60006132678482850161322e565b91505092915050565b6000806040838503121561328757613286612d44565b5b600061329585828601612f9a565b92505060206132a68582860161322e565b9150509250929050565b600067ffffffffffffffff8211156132cb576132ca613076565b5b6132d482612e58565b9050602081019050919050565b60006132f46132ef846132b0565b6130d6565b9050828152602081018484840111156133105761330f613071565b5b61331b848285613122565b509392505050565b600082601f8301126133385761333761306c565b5b81356133488482602086016132e1565b91505092915050565b6000806000806080858703121561336b5761336a612d44565b5b600061337987828801612f9a565b945050602061338a87828801612f9a565b935050604061339b87828801612ee5565b925050606085013567ffffffffffffffff8111156133bc576133bb612d49565b5b6133c887828801613323565b91505092959194509250565b600080604083850312156133eb576133ea612d44565b5b60006133f985828601612f9a565b925050602083013567ffffffffffffffff81111561341a57613419612d49565b5b61342685828601613173565b9150509250929050565b6000806040838503121561344757613446612d44565b5b600061345585828601612f9a565b925050602061346685828601612f9a565b9150509250929050565b600061347b82612f27565b9050919050565b61348b81613470565b811461349657600080fd5b50565b6000813590506134a881613482565b92915050565b6000602082840312156134c4576134c3612d44565b5b60006134d284828501613499565b91505092915050565b7f4e487b7100000000000000000000000000000000000000000000000000000000600052602260045260246000fd5b6000600282049050600182168061352257607f821691505b60208210811415613536576135356134db565b5b50919050565b7f4552433732313a20617070726f76656420717565727920666f72206e6f6e657860008201527f697374656e7420746f6b656e0000000000000000000000000000000000000000602082015250565b6000613598602c83612e14565b91506135a38261353c565b604082019050919050565b600060208201905081810360008301526135c78161358b565b9050919050565b7f4552433732313a20617070726f76616c20746f2063757272656e74206f776e6560008201527f7200000000000000000000000000000000000000000000000000000000000000602082015250565b600061362a602183612e14565b9150613635826135ce565b604082019050919050565b600060208201905081810360008301526136598161361d565b9050919050565b7f4552433732313a20617070726f76652063616c6c6572206973206e6f74206f7760008201527f6e6572206e6f7220617070726f76656420666f7220616c6c0000000000000000602082015250565b60006136bc603883612e14565b91506136c782613660565b604082019050919050565b600060208201905081810360008301526136eb816136af565b9050919050565b7f4552433732313a207472616e736665722063616c6c6572206973206e6f74206f60008201527f776e6572206e6f7220617070726f766564000000000000000000000000000000602082015250565b600061374e603183612e14565b9150613759826136f2565b604082019050919050565b6000602082019050818103600083015261377d81613741565b9050919050565b7f455243373231456e756d657261626c653a206f776e657220696e646578206f7560008201527f74206f6620626f756e6473000000000000000000000000000000000000000000602082015250565b60006137e0602b83612e14565b91506137eb82613784565b604082019050919050565b6000602082019050818103600083015261380f816137d3565b9050919050565b7f455243373231456e756d657261626c653a20676c6f62616c20696e646578206f60008201527f7574206f6620626f756e64730000000000000000000000000000000000000000602082015250565b6000613872602c83612e14565b915061387d82613816565b604082019050919050565b600060208201905081810360008301526138a181613865565b9050919050565b7f4e487b7100000000000000000000000000000000000000000000000000000000600052603260045260246000fd5b7f4d696e74696e67206e6f7420656e61626c656420796574202e2e000000000000600082015250565b600061390d601a83612e14565b9150613918826138d7565b602082019050919050565b6000602082019050818103600083015261393c81613900565b9050919050565b600081905092915050565b600061395982612e09565b6139638185613943565b9350613973818560208601612e25565b80840191505092915050565b600061398b828461394e565b915081905092915050565b7f4172636164696f204d616368696e65204e465420616c7265616479206d696e7460008201527f6564210000000000000000000000000000000000000000000000000000000000602082015250565b60006139f2602383612e14565b91506139fd82613996565b604082019050919050565b60006020820190508181036000830152613a21816139e5565b9050919050565b7f4e6f742073756666696369656e742070726963652e204e65656420746f20706160008201527f7920757021000000000000000000000000000000000000000000000000000000602082015250565b6000613a84602583612e14565b9150613a8f82613a28565b604082019050919050565b60006020820190508181036000830152613ab381613a77565b9050919050565b7f416c6c204e4654732068617665206265656e206d696e74656400000000000000600082015250565b6000613af0601983612e14565b9150613afb82613aba565b602082019050919050565b60006020820190508181036000830152613b1f81613ae3565b9050919050565b6000604082019050613b3b6000830185612f59565b613b486020830184612fef565b9392505050565b7f4552433732313a206f776e657220717565727920666f72206e6f6e657869737460008201527f656e7420746f6b656e0000000000000000000000000000000000000000000000602082015250565b6000613bab602983612e14565b9150613bb682613b4f565b604082019050919050565b60006020820190508181036000830152613bda81613b9e565b9050919050565b7f4f776e61626c653a2063616c6c6572206973206e6f7420746865206f776e6572600082015250565b6000613c17602083612e14565b9150613c2282613be1565b602082019050919050565b60006020820190508181036000830152613c4681613c0a565b9050919050565b7f4552433732313a2062616c616e636520717565727920666f7220746865207a6560008201527f726f206164647265737300000000000000000000000000000000000000000000602082015250565b6000613ca9602a83612e14565b9150613cb482613c4d565b604082019050919050565b60006020820190508181036000830152613cd881613c9c565b9050919050565b7f4f776e61626c653a206e6577206f776e657220697320746865207a65726f206160008201527f6464726573730000000000000000000000000000000000000000000000000000602082015250565b6000613d3b602683612e14565b9150613d4682613cdf565b604082019050919050565b60006020820190508181036000830152613d6a81613d2e565b9050919050565b7f4552433732313a206f70657261746f7220717565727920666f72206e6f6e657860008201527f697374656e7420746f6b656e0000000000000000000000000000000000000000602082015250565b6000613dcd602c83612e14565b9150613dd882613d71565b604082019050919050565b60006020820190508181036000830152613dfc81613dc0565b9050919050565b7f4552433732313a207472616e736665722066726f6d20696e636f72726563742060008201527f6f776e6572000000000000000000000000000000000000000000000000000000602082015250565b6000613e5f602583612e14565b9150613e6a82613e03565b604082019050919050565b60006020820190508181036000830152613e8e81613e52565b9050919050565b7f4552433732313a207472616e7366657220746f20746865207a65726f2061646460008201527f7265737300000000000000000000000000000000000000000000000000000000602082015250565b6000613ef1602483612e14565b9150613efc82613e95565b604082019050919050565b60006020820190508181036000830152613f2081613ee4565b9050919050565b7f4e487b7100000000000000000000000000000000000000000000000000000000600052601160045260246000fd5b6000613f6182612ec4565b9150613f6c83612ec4565b925082821015613f7f57613f7e613f27565b5b828203905092915050565b6000613f9582612ec4565b9150613fa083612ec4565b9250827fffffffffffffffffffffffffffffffffffffffffffffffffffffffffffffffff03821115613fd557613fd4613f27565b5b828201905092915050565b7f45524337323155524953746f726167653a2055524920736574206f66206e6f6e60008201527f6578697374656e7420746f6b656e000000000000000000000000000000000000602082015250565b600061403c602e83612e14565b915061404782613fe0565b604082019050919050565b6000602082019050818103600083015261406b8161402f565b9050919050565b6000819050919050565b600061409761409261408d84612f27565b614072565b612f27565b9050919050565b60006140a98261407c565b9050919050565b60006140bb8261409e565b9050919050565b6140cb816140b0565b82525050565b60006040820190506140e660008301856140c2565b6140f36020830184612fef565b9392505050565b7f4552433732313a20617070726f766520746f2063616c6c657200000000000000600082015250565b6000614130601983612e14565b915061413b826140fa565b602082019050919050565b6000602082019050818103600083015261415f81614123565b9050919050565b7f4552433732313a207472616e7366657220746f206e6f6e20455243373231526560008201527f63656976657220696d706c656d656e7465720000000000000000000000000000602082015250565b60006141c2603283612e14565b91506141cd82614166565b604082019050919050565b600060208201905081810360008301526141f1816141b5565b9050919050565b7f45524337323155524953746f726167653a2055524920717565727920666f722060008201527f6e6f6e6578697374656e7420746f6b656e000000000000000000000000000000602082015250565b6000614254603183612e14565b915061425f826141f8565b604082019050919050565b6000602082019050818103600083015261428381614247565b9050919050565b6000614296828561394e565b91506142a2828461394e565b91508190509392505050565b600081519050919050565b600082825260208201905092915050565b60006142d5826142ae565b6142df81856142b9565b93506142ef818560208601612e25565b6142f881612e58565b840191505092915050565b60006080820190506143186000830187612f59565b6143256020830186612f59565b6143326040830185612fef565b818103606083015261434481846142ca565b905095945050505050565b60008151905061435e81612d7a565b92915050565b60006020828403121561437a57614379612d44565b5b60006143888482850161434f565b91505092915050565b7f4552433732314d657461646174613a2055524920717565727920666f72206e6f60008201527f6e6578697374656e7420746f6b656e0000000000000000000000000000000000602082015250565b60006143ed602f83612e14565b91506143f882614391565b604082019050919050565b6000602082019050818103600083015261441c816143e0565b9050919050565b7f4552433732313a206d696e7420746f20746865207a65726f2061646472657373600082015250565b6000614459602083612e14565b915061446482614423565b602082019050919050565b600060208201905081810360008301526144888161444c565b9050919050565b7f4552433732313a20746f6b656e20616c7265616479206d696e74656400000000600082015250565b60006144c5601c83612e14565b91506144d08261448f565b602082019050919050565b600060208201905081810360008301526144f4816144b8565b9050919050565b600061450682612ec4565b91507fffffffffffffffffffffffffffffffffffffffffffffffffffffffffffffffff82141561453957614538613f27565b5b600182019050919050565b7f4e487b7100000000000000000000000000000000000000000000000000000000600052601260045260246000fd5b600061457e82612ec4565b915061458983612ec4565b92508261459957614598614544565b5b828204905092915050565b60006145af82612ec4565b91506145ba83612ec4565b9250826145ca576145c9614544565b5b828206905092915050565b7f4e487b7100000000000000000000000000000000000000000000000000000000600052603160045260246000fdfea264697066735822122079834b17312b85a1e6549097e33c97660b291b9bc79b63d91379ff84601afdf464736f6c634300080b0033",
  "immutableReferences": {},
  "source": "// SPDX-License-Identifier: MIT\npragma solidity ^0.8.4;\n\n/*\nWelcome to ArcadioNFT! We are developing a cutting edge online gaming network for \nthe digital world. Simple addictive games with maximum benefit for machine(NFT) holders\nby providing continuos rent through machine usage and game in-play charges.\n\nWebsite: https://arcadio.network\n*/\n\nimport \"@openzeppelin/contracts/token/ERC721/ERC721.sol\";\nimport \"@openzeppelin/contracts/token/ERC721/extensions/ERC721Enumerable.sol\";\nimport \"@openzeppelin/contracts/token/ERC721/extensions/ERC721URIStorage.sol\";\nimport \"@openzeppelin/contracts/access/Ownable.sol\";\nimport \"@openzeppelin/contracts/utils/Counters.sol\";\n\ncontract ArcadioNFT is ERC721, ERC721Enumerable, ERC721URIStorage, Ownable {\n    using Counters for Counters.Counter;\n\n    Counters.Counter private _tokenIdCounter;\n    bool public publicMintEnabled = false;\n    uint256 public price = 0.1 ether;\n    uint256 public maxSupply = 999;\n    address payable paymentAddress;\n    mapping(string => uint256) existingURIs;\n    mapping(uint256 => address) public creator;\n\n    event NFTMinted(address _to, uint256 tokenId);\n    event balancePaid(address _to, uint256 amount);\n\n    constructor() ERC721(\"ArcadioNFT\", \"ARCAD\") {\n        paymentAddress = payable(owner());\n    }\n\n    function _baseURI() internal pure override returns (string memory) {\n        return \"ipfs://\";\n    }\n\n    function setPublicMintEnabled(bool enabled) public onlyOwner {\n        publicMintEnabled = enabled;\n    }\n\n    function setPrice(uint256 mintPrice) public onlyOwner {\n        price = mintPrice;\n    }\n\n    function setMaxSupply(uint256 newMaxSupply) public onlyOwner {\n        maxSupply = newMaxSupply;\n    }\n\n    function isContentOwned(string memory uri) public view returns (bool) {\n        return existingURIs[uri] == 1;\n    }\n\n    function updatePaymentAddress(address payable newAddress) public onlyOwner {\n        paymentAddress = newAddress;\n    }\n\n    function safeMint(address to, string memory uri) public onlyOwner {\n        require(totalSupply() < maxSupply, \"All NFTs have been minted\");\n        uint256 tokenId = _tokenIdCounter.current();\n        _tokenIdCounter.increment();\n        _safeMint(to, tokenId);\n        _setTokenURI(tokenId, uri);\n        emit NFTMinted(to, tokenId);\n        creator[tokenId] = to;\n    }\n\n    function payToMint(string memory metadataURI)\n        public\n        payable\n        returns (uint256)\n    {\n        require(publicMintEnabled, \"Minting not enabled yet ..\");\n        require(\n            existingURIs[metadataURI] != 1,\n            \"Arcadio Machine NFT already minted!\"\n        );\n        require(msg.value >= price, \"Not sufficient price. Need to pay up!\");\n        require(totalSupply() < maxSupply, \"All NFTs have been minted\");\n        uint256 newItemId = _tokenIdCounter.current();\n        _tokenIdCounter.increment();\n        existingURIs[metadataURI] = 1;\n\n        _safeMint(msg.sender, newItemId);\n        _setTokenURI(newItemId, metadataURI);\n        emit NFTMinted(msg.sender, newItemId);\n\n        creator[newItemId] = msg.sender;\n        payBalance(msg.value);\n        return newItemId;\n    }\n\n    function payBalance(uint256 amount) private {\n        payable(paymentAddress).transfer(amount);\n        emit balancePaid(paymentAddress, amount);\n    }\n\n    // The following functions are overrides required by Solidity.\n\n    function _beforeTokenTransfer(\n        address from,\n        address to,\n        uint256 tokenId\n    ) internal override(ERC721, ERC721Enumerable) {\n        super._beforeTokenTransfer(from, to, tokenId);\n    }\n\n    function _burn(uint256 tokenId)\n        internal\n        override(ERC721, ERC721URIStorage)\n    {\n        super._burn(tokenId);\n    }\n\n    function tokenURI(uint256 tokenId)\n        public\n        view\n        override(ERC721, ERC721URIStorage)\n        returns (string memory)\n    {\n        return super.tokenURI(tokenId);\n    }\n\n    function supportsInterface(bytes4 interfaceId)\n        public\n        view\n        override(ERC721, ERC721Enumerable)\n        returns (bool)\n    {\n        return super.supportsInterface(interfaceId);\n    }\n}\n",
  "sourcePath": "/Users/rylan/Documents/Blockchain/Cryptodev/cryptechpy/Projects/smartcontract/contracts/ArcadioNFT.sol",
  "compiler": {
    "name": "solc",
    "version": "0.8.11+commit.d7f03943.Emscripten.clang"
  },
  "schemaVersion": "3.4.4",
  "updatedAt": "2022-03-10T22:10:02.387Z",
  "networkType": "ethereum",
  "devdoc": {
    "kind": "dev",
    "methods": {
      "approve(address,uint256)": {
        "details": "See {IERC721-approve}."
      },
      "balanceOf(address)": {
        "details": "See {IERC721-balanceOf}."
      },
      "getApproved(uint256)": {
        "details": "See {IERC721-getApproved}."
      },
      "isApprovedForAll(address,address)": {
        "details": "See {IERC721-isApprovedForAll}."
      },
      "name()": {
        "details": "See {IERC721Metadata-name}."
      },
      "owner()": {
        "details": "Returns the address of the current owner."
      },
      "ownerOf(uint256)": {
        "details": "See {IERC721-ownerOf}."
      },
      "renounceOwnership()": {
        "details": "Leaves the contract without owner. It will not be possible to call `onlyOwner` functions anymore. Can only be called by the current owner. NOTE: Renouncing ownership will leave the contract without an owner, thereby removing any functionality that is only available to the owner."
      },
      "safeTransferFrom(address,address,uint256)": {
        "details": "See {IERC721-safeTransferFrom}."
      },
      "safeTransferFrom(address,address,uint256,bytes)": {
        "details": "See {IERC721-safeTransferFrom}."
      },
      "setApprovalForAll(address,bool)": {
        "details": "See {IERC721-setApprovalForAll}."
      },
      "symbol()": {
        "details": "See {IERC721Metadata-symbol}."
      },
      "tokenByIndex(uint256)": {
        "details": "See {IERC721Enumerable-tokenByIndex}."
      },
      "tokenOfOwnerByIndex(address,uint256)": {
        "details": "See {IERC721Enumerable-tokenOfOwnerByIndex}."
      },
      "totalSupply()": {
        "details": "See {IERC721Enumerable-totalSupply}."
      },
      "transferFrom(address,address,uint256)": {
        "details": "See {IERC721-transferFrom}."
      },
      "transferOwnership(address)": {
        "details": "Transfers ownership of the contract to a new account (`newOwner`). Can only be called by the current owner."
      }
    },
    "version": 1
  },
  "userdoc": {
    "kind": "user",
    "methods": {},
    "version": 1
  }
}